{
  "address": "0xC61ac21Fb56322edD30b39A2DD91Db0994FC3339",
  "abi": [
    {
      "inputs": [
        {
          "internalType": "uint256",
          "name": "_maximumTokens",
          "type": "uint256"
        },
        {
          "internalType": "uint256",
          "name": "_cooldownPeriod",
          "type": "uint256"
        },
        {
          "internalType": "uint256",
          "name": "_minimumDistributionPeriod",
          "type": "uint256"
        },
        {
          "internalType": "string",
          "name": "_name",
          "type": "string"
        },
        {
          "internalType": "string",
          "name": "_symbol",
          "type": "string"
        },
        {
          "internalType": "string",
          "name": "_baseURI",
          "type": "string"
        },
        {
          "internalType": "string",
          "name": "_assetURI",
          "type": "string"
        }
      ],
      "stateMutability": "nonpayable",
      "type": "constructor"
    },
    {
      "anonymous": false,
      "inputs": [
        {
          "indexed": true,
          "internalType": "address",
          "name": "owner",
          "type": "address"
        },
        {
          "indexed": true,
          "internalType": "address",
          "name": "approved",
          "type": "address"
        },
        {
          "indexed": true,
          "internalType": "uint256",
          "name": "tokenId",
          "type": "uint256"
        }
      ],
      "name": "Approval",
      "type": "event"
    },
    {
      "anonymous": false,
      "inputs": [
        {
          "indexed": true,
          "internalType": "address",
          "name": "owner",
          "type": "address"
        },
        {
          "indexed": true,
          "internalType": "address",
          "name": "operator",
          "type": "address"
        },
        {
          "indexed": false,
          "internalType": "bool",
          "name": "approved",
          "type": "bool"
        }
      ],
      "name": "ApprovalForAll",
      "type": "event"
    },
    {
      "anonymous": false,
      "inputs": [
        {
          "indexed": true,
          "internalType": "address",
          "name": "previousOwner",
          "type": "address"
        },
        {
          "indexed": true,
          "internalType": "address",
          "name": "newOwner",
          "type": "address"
        }
      ],
      "name": "OwnershipTransferred",
      "type": "event"
    },
    {
      "anonymous": false,
      "inputs": [
        {
          "indexed": false,
          "internalType": "address",
          "name": "account",
          "type": "address"
        }
      ],
      "name": "Paused",
      "type": "event"
    },
    {
      "anonymous": false,
      "inputs": [
        {
          "indexed": true,
          "internalType": "uint256",
          "name": "tokenId",
          "type": "uint256"
        },
        {
          "indexed": false,
          "internalType": "uint256",
          "name": "payment",
          "type": "uint256"
        },
        {
          "indexed": true,
          "internalType": "address",
          "name": "receiver",
          "type": "address"
        }
      ],
      "name": "PaymentReleased",
      "type": "event"
    },
    {
      "anonymous": false,
      "inputs": [
        {
          "indexed": false,
          "internalType": "uint256",
          "name": "depositAmount",
          "type": "uint256"
        },
        {
          "indexed": false,
          "internalType": "uint256",
          "name": "startTime",
          "type": "uint256"
        },
        {
          "indexed": false,
          "internalType": "uint256",
          "name": "endTime",
          "type": "uint256"
        }
      ],
      "name": "PrepareRewards",
      "type": "event"
    },
    {
      "anonymous": false,
      "inputs": [
        {
          "indexed": true,
          "internalType": "uint256",
          "name": "index",
          "type": "uint256"
        },
        {
          "indexed": false,
          "internalType": "uint256",
          "name": "maximumTokens",
          "type": "uint256"
        },
        {
          "indexed": false,
          "internalType": "string",
          "name": "assetURI",
          "type": "string"
        }
      ],
      "name": "RewardAssetAdded",
      "type": "event"
    },
    {
      "anonymous": false,
      "inputs": [
        {
          "indexed": true,
          "internalType": "address",
          "name": "from",
          "type": "address"
        },
        {
          "indexed": true,
          "internalType": "address",
          "name": "to",
          "type": "address"
        },
        {
          "indexed": true,
          "internalType": "uint256",
          "name": "tokenId",
          "type": "uint256"
        }
      ],
      "name": "Transfer",
      "type": "event"
    },
    {
      "anonymous": false,
      "inputs": [
        {
          "indexed": false,
          "internalType": "address",
          "name": "account",
          "type": "address"
        }
      ],
      "name": "Unpaused",
      "type": "event"
    },
    {
      "inputs": [],
      "name": "PREFIX_MULTIPLIER",
      "outputs": [
        {
          "internalType": "uint256",
          "name": "",
          "type": "uint256"
        }
      ],
      "stateMutability": "view",
      "type": "function"
    },
    {
      "inputs": [
        {
          "internalType": "uint256",
          "name": "_maximumTokens",
          "type": "uint256"
        },
        {
          "internalType": "uint256",
          "name": "_cooldownPeriod",
          "type": "uint256"
        },
        {
          "internalType": "uint256",
          "name": "_minimumDistributionPeriod",
          "type": "uint256"
        },
        {
          "internalType": "string",
          "name": "_baseURI",
          "type": "string"
        },
        {
          "internalType": "string",
          "name": "_assetURI",
          "type": "string"
        }
      ],
      "name": "addNewReward",
      "outputs": [],
      "stateMutability": "nonpayable",
      "type": "function"
    },
    {
      "inputs": [
        {
          "internalType": "address[]",
          "name": "_receivers",
          "type": "address[]"
        },
        {
          "internalType": "uint256",
          "name": "_rewardIndex",
          "type": "uint256"
        }
      ],
      "name": "airdrop",
      "outputs": [],
      "stateMutability": "nonpayable",
      "type": "function"
    },
    {
      "inputs": [
        {
          "internalType": "address",
          "name": "to",
          "type": "address"
        },
        {
          "internalType": "uint256",
          "name": "tokenId",
          "type": "uint256"
        }
      ],
      "name": "approve",
      "outputs": [],
      "stateMutability": "nonpayable",
      "type": "function"
    },
    {
      "inputs": [
        {
          "internalType": "address",
          "name": "owner",
          "type": "address"
        }
      ],
      "name": "balanceOf",
      "outputs": [
        {
          "internalType": "uint256",
          "name": "",
          "type": "uint256"
        }
      ],
      "stateMutability": "view",
      "type": "function"
    },
    {
      "inputs": [
        {
          "internalType": "uint256",
          "name": "tokenId",
          "type": "uint256"
        }
      ],
      "name": "getApproved",
      "outputs": [
        {
          "internalType": "address",
          "name": "",
          "type": "address"
        }
      ],
      "stateMutability": "view",
      "type": "function"
    },
    {
      "inputs": [
        {
          "internalType": "uint256",
          "name": "_tokenId",
          "type": "uint256"
        }
      ],
      "name": "getRewardIndex",
      "outputs": [
        {
          "internalType": "uint256",
          "name": "",
          "type": "uint256"
        }
      ],
      "stateMutability": "pure",
      "type": "function"
    },
    {
      "inputs": [
        {
          "internalType": "address",
          "name": "owner",
          "type": "address"
        },
        {
          "internalType": "address",
          "name": "operator",
          "type": "address"
        }
      ],
      "name": "isApprovedForAll",
      "outputs": [
        {
          "internalType": "bool",
          "name": "",
          "type": "bool"
        }
      ],
      "stateMutability": "view",
      "type": "function"
    },
    {
      "inputs": [],
      "name": "name",
      "outputs": [
        {
          "internalType": "string",
          "name": "",
          "type": "string"
        }
      ],
      "stateMutability": "view",
      "type": "function"
    },
    {
      "inputs": [],
      "name": "owner",
      "outputs": [
        {
          "internalType": "address",
          "name": "",
          "type": "address"
        }
      ],
      "stateMutability": "view",
      "type": "function"
    },
    {
      "inputs": [
        {
          "internalType": "uint256",
          "name": "tokenId",
          "type": "uint256"
        }
      ],
      "name": "ownerOf",
      "outputs": [
        {
          "internalType": "address",
          "name": "",
          "type": "address"
        }
      ],
      "stateMutability": "view",
      "type": "function"
    },
    {
      "inputs": [],
      "name": "pause",
      "outputs": [],
      "stateMutability": "nonpayable",
      "type": "function"
    },
    {
      "inputs": [],
      "name": "paused",
      "outputs": [
        {
          "internalType": "bool",
          "name": "",
          "type": "bool"
        }
      ],
      "stateMutability": "view",
      "type": "function"
    },
    {
      "inputs": [
        {
          "internalType": "uint256",
          "name": "tokenId",
          "type": "uint256"
        }
      ],
      "name": "pendingReward",
      "outputs": [
        {
          "internalType": "uint256",
          "name": "",
          "type": "uint256"
        }
      ],
      "stateMutability": "view",
      "type": "function"
    },
    {
      "inputs": [
        {
          "internalType": "uint256",
          "name": "_distributionStartTime",
          "type": "uint256"
        },
        {
          "internalType": "uint256",
          "name": "_distributionEndTime",
          "type": "uint256"
        },
        {
          "internalType": "uint256",
          "name": "_rewardIndex",
          "type": "uint256"
        }
      ],
      "name": "prepareForRewards",
      "outputs": [],
      "stateMutability": "payable",
      "type": "function"
    },
    {
      "inputs": [
        {
          "internalType": "uint256",
          "name": "tokenId",
          "type": "uint256"
        }
      ],
      "name": "releaseReward",
      "outputs": [],
      "stateMutability": "nonpayable",
      "type": "function"
    },
    {
      "inputs": [],
      "name": "removeRoyalty",
      "outputs": [],
      "stateMutability": "nonpayable",
      "type": "function"
    },
    {
      "inputs": [],
      "name": "renounceOwnership",
      "outputs": [],
      "stateMutability": "nonpayable",
      "type": "function"
    },
    {
      "inputs": [
        {
          "internalType": "uint256",
          "name": "",
          "type": "uint256"
        }
      ],
      "name": "rewards",
      "outputs": [
        {
          "internalType": "uint256",
          "name": "maximumTokens",
          "type": "uint256"
        },
        {
          "internalType": "uint256",
          "name": "cooldownPeriod",
          "type": "uint256"
        },
        {
          "internalType": "uint256",
          "name": "minimumDistributionPeriod",
          "type": "uint256"
        },
        {
          "internalType": "uint256",
          "name": "distributionStartTime",
          "type": "uint256"
        },
        {
          "internalType": "uint256",
          "name": "distributionEndTime",
          "type": "uint256"
        },
        {
          "internalType": "uint256",
          "name": "totalBalance",
          "type": "uint256"
        },
        {
          "internalType": "uint256",
          "name": "totalReleased",
          "type": "uint256"
        },
        {
          "internalType": "uint256",
          "name": "totalSupply",
          "type": "uint256"
        },
        {
          "internalType": "string",
          "name": "baseURI",
          "type": "string"
        },
        {
          "internalType": "string",
          "name": "assetURI",
          "type": "string"
        }
      ],
      "stateMutability": "view",
      "type": "function"
    },
    {
      "inputs": [],
      "name": "rewardsIndex",
      "outputs": [
        {
          "internalType": "uint256",
          "name": "",
          "type": "uint256"
        }
      ],
      "stateMutability": "view",
      "type": "function"
    },
    {
      "inputs": [
        {
          "internalType": "uint256",
          "name": "_tokenId",
          "type": "uint256"
        },
        {
          "internalType": "uint256",
          "name": "_salePrice",
          "type": "uint256"
        }
      ],
      "name": "royaltyInfo",
      "outputs": [
        {
          "internalType": "address",
          "name": "",
          "type": "address"
        },
        {
          "internalType": "uint256",
          "name": "",
          "type": "uint256"
        }
      ],
      "stateMutability": "view",
      "type": "function"
    },
    {
      "inputs": [
        {
          "internalType": "address",
          "name": "from",
          "type": "address"
        },
        {
          "internalType": "address",
          "name": "to",
          "type": "address"
        },
        {
          "internalType": "uint256",
          "name": "tokenId",
          "type": "uint256"
        }
      ],
      "name": "safeTransferFrom",
      "outputs": [],
      "stateMutability": "nonpayable",
      "type": "function"
    },
    {
      "inputs": [
        {
          "internalType": "address",
          "name": "from",
          "type": "address"
        },
        {
          "internalType": "address",
          "name": "to",
          "type": "address"
        },
        {
          "internalType": "uint256",
          "name": "tokenId",
          "type": "uint256"
        },
        {
          "internalType": "bytes",
          "name": "_data",
          "type": "bytes"
        }
      ],
      "name": "safeTransferFrom",
      "outputs": [],
      "stateMutability": "nonpayable",
      "type": "function"
    },
    {
      "inputs": [
        {
          "internalType": "address",
          "name": "operator",
          "type": "address"
        },
        {
          "internalType": "bool",
          "name": "approved",
          "type": "bool"
        }
      ],
      "name": "setApprovalForAll",
      "outputs": [],
      "stateMutability": "nonpayable",
      "type": "function"
    },
    {
      "inputs": [
        {
          "internalType": "string",
          "name": "_baseURI",
          "type": "string"
        },
        {
          "internalType": "uint256",
          "name": "_rewardIndex",
          "type": "uint256"
        }
      ],
      "name": "setBaseURI",
      "outputs": [],
      "stateMutability": "nonpayable",
      "type": "function"
    },
    {
      "inputs": [
        {
          "internalType": "address",
          "name": "_account",
          "type": "address"
        },
        {
          "internalType": "uint96",
          "name": "_fee",
          "type": "uint96"
        }
      ],
      "name": "setRoyalty",
      "outputs": [],
      "stateMutability": "nonpayable",
      "type": "function"
    },
    {
      "inputs": [
        {
          "internalType": "bytes4",
          "name": "interfaceId",
          "type": "bytes4"
        }
      ],
      "name": "supportsInterface",
      "outputs": [
        {
          "internalType": "bool",
          "name": "",
          "type": "bool"
        }
      ],
      "stateMutability": "view",
      "type": "function"
    },
    {
      "inputs": [],
      "name": "symbol",
      "outputs": [
        {
          "internalType": "string",
          "name": "",
          "type": "string"
        }
      ],
      "stateMutability": "view",
      "type": "function"
    },
    {
      "inputs": [
        {
          "internalType": "uint256",
          "name": "tokenId",
          "type": "uint256"
        }
      ],
      "name": "tokenURI",
      "outputs": [
        {
          "internalType": "string",
          "name": "",
          "type": "string"
        }
      ],
      "stateMutability": "view",
      "type": "function"
    },
    {
      "inputs": [],
      "name": "totalSupply",
      "outputs": [
        {
          "internalType": "uint256",
          "name": "",
          "type": "uint256"
        }
      ],
      "stateMutability": "view",
      "type": "function"
    },
    {
      "inputs": [
        {
          "internalType": "address",
          "name": "from",
          "type": "address"
        },
        {
          "internalType": "address",
          "name": "to",
          "type": "address"
        },
        {
          "internalType": "uint256",
          "name": "tokenId",
          "type": "uint256"
        }
      ],
      "name": "transferFrom",
      "outputs": [],
      "stateMutability": "nonpayable",
      "type": "function"
    },
    {
      "inputs": [
        {
          "internalType": "address",
          "name": "newOwner",
          "type": "address"
        }
      ],
      "name": "transferOwnership",
      "outputs": [],
      "stateMutability": "nonpayable",
      "type": "function"
    },
    {
      "inputs": [],
      "name": "unpause",
      "outputs": [],
      "stateMutability": "nonpayable",
      "type": "function"
    },
    {
      "stateMutability": "payable",
      "type": "receive"
    }
  ],
  "transactionHash": "0xc0da07d21d758fc15995e08da0a38e7477571d2e8cde08f98fa5c576e3a2a76f",
  "args": [
    4,
    120,
    86400,
    "The Real Dream",
    "TRD",
    "therealdream.com/api/",
    "youtube.com/video/xyz"
  ],
  "numDeployments": 2,
  "solcInputHash": "3b83d1f28c396a2aa77ef49d8c79f79c",
  "bytecode": "0x60806040523480156200001157600080fd5b50604051620041c9380380620041c983398101604081905262000034916200031b565b83836200004133620000a6565b6000805460ff60a01b19169055600180558151620000679060029060208501906200019b565b5080516200007d9060039060208401906200019b565b50506001600b819055905062000098818989898787620000f6565b50505050505050506200046b565b600080546001600160a01b038381166001600160a01b0319831681178455604051919092169283917f8be0079c531659141344cd1fd0a4f28419497f9722a3daafe3b4186f6b6457e09190a35050565b6000868152600a60209081526040909120868155835162000120926008909201918501906200019b565b506000868152600a602090815260409091206001810186905560028101859055825162000156926009909201918401906200019b565b50857fdb1170671cc7fbd396e37ef7b995f6448be6c3784b6aec8c30f27020c9d326c586836040516200018b929190620003f3565b60405180910390a2505050505050565b828054620001a9906200042f565b90600052602060002090601f016020900481019282620001cd576000855562000218565b82601f10620001e857805160ff191683800117855562000218565b8280016001018555821562000218579182015b8281111562000218578251825591602001919060010190620001fb565b50620002269291506200022a565b5090565b5b808211156200022657600081556001016200022b565b634e487b7160e01b600052604160045260246000fd5b60005b83811015620002745781810151838201526020016200025a565b8381111562000284576000848401525b50505050565b600082601f8301126200029c57600080fd5b81516001600160401b0380821115620002b957620002b962000241565b604051601f8301601f19908116603f01168101908282118183101715620002e457620002e462000241565b81604052838152866020858801011115620002fe57600080fd5b6200031184602083016020890162000257565b9695505050505050565b600080600080600080600060e0888a0312156200033757600080fd5b8751602089015160408a015160608b015192995090975095506001600160401b03808211156200036657600080fd5b620003748b838c016200028a565b955060808a01519150808211156200038b57600080fd5b620003998b838c016200028a565b945060a08a0151915080821115620003b057600080fd5b620003be8b838c016200028a565b935060c08a0151915080821115620003d557600080fd5b50620003e48a828b016200028a565b91505092959891949750929550565b82815260406020820152600082518060408401526200041a81606085016020870162000257565b601f01601f1916919091016060019392505050565b600181811c908216806200044457607f821691505b6020821081036200046557634e487b7160e01b600052602260045260246000fd5b50919050565b613d4e806200047b6000396000f3fe6080604052600436106102015760003560e01c8063715018a61161011d578063aad217cb116100b0578063c87b56dd1161007f578063f2fde38b11610064578063f2fde38b146106a3578063f301af42146106c3578063fa3f926b146106f957600080fd5b8063c87b56dd1461062d578063e985e9c51461064d57600080fd5b8063aad217cb146105ba578063b7797367146105cd578063b88d4fde146105ed578063c204642c1461060d57600080fd5b80638da5cb5b116100ec5780638da5cb5b1461053a5780638f2fc60b1461056557806395d89b4114610585578063a22cb4651461059a57600080fd5b8063715018a6146104e557806375ec5bd2146104fa5780638456cb59146105105780638be02eb01461052557600080fd5b806323b872dd116101955780635c975abb116101645780635c975abb146104555780636352211e14610485578063687b7ff9146104a557806370a08231146104c557600080fd5b806323b872dd146103b45780632a55205a146103d45780633f4ba83a1461042057806342842e0e1461043557600080fd5b8063095ea7b3116101d1578063095ea7b31461033057806312f7086c1461035057806318160ddd1461037e5780631f5f33291461039457600080fd5b80629f25ff1461027257806301ffc9a71461029457806306fdde03146102c9578063081812fc146102eb57600080fd5b3661026d576040517f08c379a000000000000000000000000000000000000000000000000000000000815260206004820152600b60248201527f4e4f545f414c4c4f57454400000000000000000000000000000000000000000060448201526064015b60405180910390fd5b600080fd5b34801561027e57600080fd5b5061029261028d3660046134d6565b610711565b005b3480156102a057600080fd5b506102b46102af36600461357c565b6107b4565b60405190151581526020015b60405180910390f35b3480156102d557600080fd5b506102de6107c5565b6040516102c09190613616565b3480156102f757600080fd5b5061030b610306366004613629565b610857565b60405173ffffffffffffffffffffffffffffffffffffffff90911681526020016102c0565b34801561033c57600080fd5b5061029261034b36600461366b565b610931565b34801561035c57600080fd5b5061037061036b366004613629565b610abd565b6040519081526020016102c0565b34801561038a57600080fd5b50610370600c5481565b3480156103a057600080fd5b506103706103af366004613629565b610b36565b3480156103c057600080fd5b506102926103cf366004613695565b610b46565b3480156103e057600080fd5b506103f46103ef3660046136d1565b610be7565b6040805173ffffffffffffffffffffffffffffffffffffffff90931683526020830191909152016102c0565b34801561042c57600080fd5b50610292610cde565b34801561044157600080fd5b50610292610450366004613695565b610ded565b34801561046157600080fd5b5060005474010000000000000000000000000000000000000000900460ff166102b4565b34801561049157600080fd5b5061030b6104a0366004613629565b610e08565b3480156104b157600080fd5b506102926104c03660046137d6565b610eba565b3480156104d157600080fd5b506103706104e0366004613857565b610f69565b3480156104f157600080fd5b50610292611037565b34801561050657600080fd5b50610370600b5481565b34801561051c57600080fd5b506102926110c2565b34801561053157600080fd5b506102926111d0565b34801561054657600080fd5b5060005473ffffffffffffffffffffffffffffffffffffffff1661030b565b34801561057157600080fd5b50610292610580366004613872565b61125b565b34801561059157600080fd5b506102de6112ea565b3480156105a657600080fd5b506102926105b53660046138ba565b6112f9565b6102926105c83660046138eb565b611304565b3480156105d957600080fd5b506102926105e8366004613629565b611576565b3480156105f957600080fd5b50610292610608366004613917565b6118ca565b34801561061957600080fd5b50610292610628366004613993565b61196c565b34801561063957600080fd5b506102de610648366004613629565b611b7f565b34801561065957600080fd5b506102b46106683660046139f8565b73ffffffffffffffffffffffffffffffffffffffff918216600090815260076020908152604080832093909416825291909152205460ff1690565b3480156106af57600080fd5b506102926106be366004613857565b611d1d565b3480156106cf57600080fd5b506106e36106de366004613629565b611e4d565b6040516102c09a99989796959493929190613a2b565b34801561070557600080fd5b506103706305f5e10081565b60005473ffffffffffffffffffffffffffffffffffffffff163314610792576040517f08c379a000000000000000000000000000000000000000000000000000000000815260206004820181905260248201527f4f776e61626c653a2063616c6c6572206973206e6f7420746865206f776e65726044820152606401610264565b6000818152600a602052604090206107ae9060080184846133ab565b50505050565b60006107bf82611fb1565b92915050565b6060600280546107d490613a96565b80601f016020809104026020016040519081016040528092919081815260200182805461080090613a96565b801561084d5780601f106108225761010080835404028352916020019161084d565b820191906000526020600020905b81548152906001019060200180831161083057829003601f168201915b5050505050905090565b60008181526004602052604081205473ffffffffffffffffffffffffffffffffffffffff16610908576040517f08c379a000000000000000000000000000000000000000000000000000000000815260206004820152602c60248201527f4552433732313a20617070726f76656420717565727920666f72206e6f6e657860448201527f697374656e7420746f6b656e00000000000000000000000000000000000000006064820152608401610264565b5060009081526006602052604090205473ffffffffffffffffffffffffffffffffffffffff1690565b600061093c82610e08565b90508073ffffffffffffffffffffffffffffffffffffffff168373ffffffffffffffffffffffffffffffffffffffff16036109f9576040517f08c379a000000000000000000000000000000000000000000000000000000000815260206004820152602160248201527f4552433732313a20617070726f76616c20746f2063757272656e74206f776e6560448201527f72000000000000000000000000000000000000000000000000000000000000006064820152608401610264565b3373ffffffffffffffffffffffffffffffffffffffff82161480610a225750610a228133610668565b610aae576040517f08c379a000000000000000000000000000000000000000000000000000000000815260206004820152603860248201527f4552433732313a20617070726f76652063616c6c6572206973206e6f74206f7760448201527f6e6572206e6f7220617070726f76656420666f7220616c6c00000000000000006064820152608401610264565b610ab88383612007565b505050565b600080610ac983610b36565b6000818152600a6020526040812060068101546005909101549293509091610af19190613b18565b6000838152600a60208181526040808420898552808401835290842054938790529190525491925090610b249083613b5f565b610b2e9190613b73565b949350505050565b60006107bf6305f5e10083613b5f565b610b5033826120a7565b610bdc576040517f08c379a000000000000000000000000000000000000000000000000000000000815260206004820152603160248201527f4552433732313a207472616e736665722063616c6c6572206973206e6f74206f60448201527f776e6572206e6f7220617070726f7665640000000000000000000000000000006064820152608401610264565b610ab8838383612216565b600082815260096020908152604080832081518083019092525473ffffffffffffffffffffffffffffffffffffffff8116808352740100000000000000000000000000000000000000009091046bffffffffffffffffffffffff16928201929092528291610ca257506040805180820190915260085473ffffffffffffffffffffffffffffffffffffffff811682527401000000000000000000000000000000000000000090046bffffffffffffffffffffffff1660208201525b602081015160009061271090610cc6906bffffffffffffffffffffffff1687613b8a565b610cd09190613b5f565b915196919550909350505050565b60005473ffffffffffffffffffffffffffffffffffffffff163314610d5f576040517f08c379a000000000000000000000000000000000000000000000000000000000815260206004820181905260248201527f4f776e61626c653a2063616c6c6572206973206e6f7420746865206f776e65726044820152606401610264565b60005474010000000000000000000000000000000000000000900460ff16610de3576040517f08c379a000000000000000000000000000000000000000000000000000000000815260206004820152601460248201527f5061757361626c653a206e6f74207061757365640000000000000000000000006044820152606401610264565b610deb612488565b565b610ab8838383604051806020016040528060008152506118ca565b60008181526004602052604081205473ffffffffffffffffffffffffffffffffffffffff16806107bf576040517f08c379a000000000000000000000000000000000000000000000000000000000815260206004820152602960248201527f4552433732313a206f776e657220717565727920666f72206e6f6e657869737460448201527f656e7420746f6b656e00000000000000000000000000000000000000000000006064820152608401610264565b60005473ffffffffffffffffffffffffffffffffffffffff163314610f3b576040517f08c379a000000000000000000000000000000000000000000000000000000000815260206004820181905260248201527f4f776e61626c653a2063616c6c6572206973206e6f7420746865206f776e65726044820152606401610264565b600b80546001810190915580610f5081613bc7565b915050610f61818787878787612581565b505050505050565b600073ffffffffffffffffffffffffffffffffffffffff821661100e576040517f08c379a000000000000000000000000000000000000000000000000000000000815260206004820152602a60248201527f4552433732313a2062616c616e636520717565727920666f7220746865207a6560448201527f726f2061646472657373000000000000000000000000000000000000000000006064820152608401610264565b5073ffffffffffffffffffffffffffffffffffffffff1660009081526005602052604090205490565b60005473ffffffffffffffffffffffffffffffffffffffff1633146110b8576040517f08c379a000000000000000000000000000000000000000000000000000000000815260206004820181905260248201527f4f776e61626c653a2063616c6c6572206973206e6f7420746865206f776e65726044820152606401610264565b610deb6000612620565b60005473ffffffffffffffffffffffffffffffffffffffff163314611143576040517f08c379a000000000000000000000000000000000000000000000000000000000815260206004820181905260248201527f4f776e61626c653a2063616c6c6572206973206e6f7420746865206f776e65726044820152606401610264565b60005474010000000000000000000000000000000000000000900460ff16156111c8576040517f08c379a000000000000000000000000000000000000000000000000000000000815260206004820152601060248201527f5061757361626c653a20706175736564000000000000000000000000000000006044820152606401610264565b610deb612695565b60005473ffffffffffffffffffffffffffffffffffffffff163314611251576040517f08c379a000000000000000000000000000000000000000000000000000000000815260206004820181905260248201527f4f776e61626c653a2063616c6c6572206973206e6f7420746865206f776e65726044820152606401610264565b610deb6000600855565b60005473ffffffffffffffffffffffffffffffffffffffff1633146112dc576040517f08c379a000000000000000000000000000000000000000000000000000000000815260206004820181905260248201527f4f776e61626c653a2063616c6c6572206973206e6f7420746865206f776e65726044820152606401610264565b6112e68282612781565b5050565b6060600380546107d490613a96565b6112e63383836128fa565b60005473ffffffffffffffffffffffffffffffffffffffff163314611385576040517f08c379a000000000000000000000000000000000000000000000000000000000815260206004820181905260248201527f4f776e61626c653a2063616c6c6572206973206e6f7420746865206f776e65726044820152606401610264565b6000818152600a60205260409020805460079091015414611402576040517f08c379a000000000000000000000000000000000000000000000000000000000815260206004820152601660248201527f544f4b454e535f4e4f545f4449535452494255544544000000000000000000006044820152606401610264565b6000818152600a602052604090206002015461141e8484613b73565b1015611486576040517f08c379a000000000000000000000000000000000000000000000000000000000815260206004820152601960248201527f53484f52545f444953545249425554494f4e5f504552494f44000000000000006044820152606401610264565b6000818152600a60205260409020600101546114a29042613b18565b83101561150b576040517f08c379a000000000000000000000000000000000000000000000000000000000815260206004820152600c60248201527f53484f52545f4e4f5449434500000000000000000000000000000000000000006044820152606401610264565b6000818152600a60205260409020600381018490556004018290556115303482612a27565b60408051348152602081018590529081018390527f16f31bcd5428bc6c57be22e8159bf20d4d64b67ec009cfd5a5b3169325de17a69060600160405180910390a1505050565b60005474010000000000000000000000000000000000000000900460ff16156115fb576040517f08c379a000000000000000000000000000000000000000000000000000000000815260206004820152601060248201527f5061757361626c653a20706175736564000000000000000000000000000000006044820152606401610264565b600061160682610b36565b6000818152600a6020526040902060030154909150421080159061163a57506000818152600a602052604090206004015442105b6116a0576040517f08c379a000000000000000000000000000000000000000000000000000000000815260206004820152601b60248201527f494e56414c49445f444953545249425554494f4e5f504552494f4400000000006044820152606401610264565b60008281526004602052604090205473ffffffffffffffffffffffffffffffffffffffff1661172b576040517f08c379a000000000000000000000000000000000000000000000000000000000815260206004820152601160248201527f6e6f6e6578697374656e7420746f6b656e0000000000000000000000000000006044820152606401610264565b6000818152600a60205260408120600681015460059091015461174e9190613b18565b6000838152600a60208181526040808420888552808401835290842054878552929091525492935090916117829084613b5f565b61178c9190613b73565b9050806000036117f8576040517f08c379a000000000000000000000000000000000000000000000000000000000815260206004820152600e60248201527f6e6f20647565207061796d656e740000000000000000000000000000000000006044820152606401610264565b6000838152600a60208181526040808420888552909201905281208054839290611823908490613b18565b90915550506000838152600a602052604081206006018054839290611849908490613b18565b9091555061185990508184612a51565b61186b61186585610e08565b82612a72565b61187484610e08565b73ffffffffffffffffffffffffffffffffffffffff16847fb398ec266cae176bd0a8d43b35200da0bb13c5620ad5e1663abdc3967a4ee50f836040516118bc91815260200190565b60405180910390a350505050565b6118d433836120a7565b611960576040517f08c379a000000000000000000000000000000000000000000000000000000000815260206004820152603160248201527f4552433732313a207472616e736665722063616c6c6572206973206e6f74206f60448201527f776e6572206e6f7220617070726f7665640000000000000000000000000000006064820152608401610264565b6107ae84848484612bcc565b60005473ffffffffffffffffffffffffffffffffffffffff1633146119ed576040517f08c379a000000000000000000000000000000000000000000000000000000000815260206004820181905260248201527f4f776e61626c653a2063616c6c6572206973206e6f7420746865206f776e65726044820152606401610264565b81611a54576040517f08c379a000000000000000000000000000000000000000000000000000000000815260206004820152601460248201527f5a45524f5f5245434549564552535f434f554e540000000000000000000000006044820152606401610264565b6000818152600a602052604090208054600790910154611a75908490613b18565b1115611add576040517f08c379a000000000000000000000000000000000000000000000000000000000815260206004820152601260248201527f4d41585f544f4b454e535f5245414348454400000000000000000000000000006044820152606401610264565b6000611aed6305f5e10083613b8a565b600c805485019055905060005b83811015611b78576000838152600a6020526040902060070180546001019055611b66858583818110611b2f57611b2f613bff565b9050602002016020810190611b449190613857565b6000858152600a6020526040902060070154611b61908590613b18565b612c6f565b80611b7081613bc7565b915050611afa565b5050505050565b60008181526004602052604090205460609073ffffffffffffffffffffffffffffffffffffffff16611c0d576040517f08c379a000000000000000000000000000000000000000000000000000000000815260206004820152601160248201527f6e6f6e6578697374656e7420746f6b656e0000000000000000000000000000006044820152606401610264565b6000611c1883610b36565b90506000611c2a6305f5e10085613c2e565b6000838152600a6020526040812060080180549293509091611c4b90613a96565b80601f0160208091040260200160405190810160405280929190818152602001828054611c7790613a96565b8015611cc45780601f10611c9957610100808354040283529160200191611cc4565b820191906000526020600020905b815481529060010190602001808311611ca757829003601f168201915b505050505090506000815111611ce95760405180602001604052806000815250611d14565b80611cf383612c89565b604051602001611d04929190613c42565b6040516020818303038152906040525b95945050505050565b60005473ffffffffffffffffffffffffffffffffffffffff163314611d9e576040517f08c379a000000000000000000000000000000000000000000000000000000000815260206004820181905260248201527f4f776e61626c653a2063616c6c6572206973206e6f7420746865206f776e65726044820152606401610264565b73ffffffffffffffffffffffffffffffffffffffff8116611e41576040517f08c379a000000000000000000000000000000000000000000000000000000000815260206004820152602660248201527f4f776e61626c653a206e6577206f776e657220697320746865207a65726f206160448201527f64647265737300000000000000000000000000000000000000000000000000006064820152608401610264565b611e4a81612620565b50565b600a602052806000526040600020600091509050806000015490806001015490806002015490806003015490806004015490806005015490806006015490806007015490806008018054611ea090613a96565b80601f0160208091040260200160405190810160405280929190818152602001828054611ecc90613a96565b8015611f195780601f10611eee57610100808354040283529160200191611f19565b820191906000526020600020905b815481529060010190602001808311611efc57829003601f168201915b505050505090806009018054611f2e90613a96565b80601f0160208091040260200160405190810160405280929190818152602001828054611f5a90613a96565b8015611fa75780601f10611f7c57610100808354040283529160200191611fa7565b820191906000526020600020905b815481529060010190602001808311611f8a57829003601f168201915b505050505090508a565b60007fffffffff0000000000000000000000000000000000000000000000000000000082167f2a55205a0000000000000000000000000000000000000000000000000000000014806107bf57506107bf82612dbe565b600081815260066020526040902080547fffffffffffffffffffffffff00000000000000000000000000000000000000001673ffffffffffffffffffffffffffffffffffffffff8416908117909155819061206182610e08565b73ffffffffffffffffffffffffffffffffffffffff167f8c5be1e5ebec7d5bd14f71427d1e84f3dd0314c0f7b2291e5b200ac8c7c3b92560405160405180910390a45050565b60008181526004602052604081205473ffffffffffffffffffffffffffffffffffffffff16612158576040517f08c379a000000000000000000000000000000000000000000000000000000000815260206004820152602c60248201527f4552433732313a206f70657261746f7220717565727920666f72206e6f6e657860448201527f697374656e7420746f6b656e00000000000000000000000000000000000000006064820152608401610264565b600061216383610e08565b90508073ffffffffffffffffffffffffffffffffffffffff168473ffffffffffffffffffffffffffffffffffffffff1614806121d1575073ffffffffffffffffffffffffffffffffffffffff80821660009081526007602090815260408083209388168352929052205460ff165b80610b2e57508373ffffffffffffffffffffffffffffffffffffffff166121f784610857565b73ffffffffffffffffffffffffffffffffffffffff1614949350505050565b8273ffffffffffffffffffffffffffffffffffffffff1661223682610e08565b73ffffffffffffffffffffffffffffffffffffffff16146122d9576040517f08c379a000000000000000000000000000000000000000000000000000000000815260206004820152602560248201527f4552433732313a207472616e736665722066726f6d20696e636f72726563742060448201527f6f776e65720000000000000000000000000000000000000000000000000000006064820152608401610264565b73ffffffffffffffffffffffffffffffffffffffff821661237b576040517f08c379a0000000000000000000000000000000000000000000000000000000008152602060048201526024808201527f4552433732313a207472616e7366657220746f20746865207a65726f2061646460448201527f72657373000000000000000000000000000000000000000000000000000000006064820152608401610264565b612386838383612ea1565b612391600082612007565b73ffffffffffffffffffffffffffffffffffffffff831660009081526005602052604081208054600192906123c7908490613b73565b909155505073ffffffffffffffffffffffffffffffffffffffff82166000908152600560205260408120805460019290612402908490613b18565b909155505060008181526004602052604080822080547fffffffffffffffffffffffff00000000000000000000000000000000000000001673ffffffffffffffffffffffffffffffffffffffff86811691821790925591518493918716917fddf252ad1be2c89b69c2b068fc378daa952ba7f163c4a11628f55a4df523b3ef91a4505050565b60005474010000000000000000000000000000000000000000900460ff1661250c576040517f08c379a000000000000000000000000000000000000000000000000000000000815260206004820152601460248201527f5061757361626c653a206e6f74207061757365640000000000000000000000006044820152606401610264565b600080547fffffffffffffffffffffff00ffffffffffffffffffffffffffffffffffffffff1690557f5db9ee0a495bf2e6ff9c91a7834c1ba4fdd244a5e8aa4e537bd38aeae4b073aa335b60405173ffffffffffffffffffffffffffffffffffffffff909116815260200160405180910390a1565b6000868152600a6020908152604090912086815583516125a99260089092019185019061344d565b506000868152600a60209081526040909120600181018690556002810185905582516125dd9260099092019184019061344d565b50857fdb1170671cc7fbd396e37ef7b995f6448be6c3784b6aec8c30f27020c9d326c58683604051612610929190613c99565b60405180910390a2505050505050565b6000805473ffffffffffffffffffffffffffffffffffffffff8381167fffffffffffffffffffffffff0000000000000000000000000000000000000000831681178455604051919092169283917f8be0079c531659141344cd1fd0a4f28419497f9722a3daafe3b4186f6b6457e09190a35050565b60005474010000000000000000000000000000000000000000900460ff161561271a576040517f08c379a000000000000000000000000000000000000000000000000000000000815260206004820152601060248201527f5061757361626c653a20706175736564000000000000000000000000000000006044820152606401610264565b600080547fffffffffffffffffffffff00ffffffffffffffffffffffffffffffffffffffff16740100000000000000000000000000000000000000001790557f62e78cea01bee320cd4e420270b5ea74000d11b0c9f74754ebdbfc544b05a2586125573390565b6127106bffffffffffffffffffffffff82161115612821576040517f08c379a000000000000000000000000000000000000000000000000000000000815260206004820152602a60248201527f455243323938313a20726f79616c7479206665652077696c6c2065786365656460448201527f2073616c655072696365000000000000000000000000000000000000000000006064820152608401610264565b73ffffffffffffffffffffffffffffffffffffffff821661289e576040517f08c379a000000000000000000000000000000000000000000000000000000000815260206004820152601960248201527f455243323938313a20696e76616c6964207265636569766572000000000000006044820152606401610264565b6040805180820190915273ffffffffffffffffffffffffffffffffffffffff9092168083526bffffffffffffffffffffffff90911660209092018290527401000000000000000000000000000000000000000090910217600855565b8173ffffffffffffffffffffffffffffffffffffffff168373ffffffffffffffffffffffffffffffffffffffff160361298f576040517f08c379a000000000000000000000000000000000000000000000000000000000815260206004820152601960248201527f4552433732313a20617070726f766520746f2063616c6c6572000000000000006044820152606401610264565b73ffffffffffffffffffffffffffffffffffffffff83811660008181526007602090815260408083209487168084529482529182902080547fffffffffffffffffffffffffffffffffffffffffffffffffffffffffffffff001686151590811790915591519182527f17307eab39ab6107e8899845ad3d59bd9653f200f220920489ca2b5937696c31910160405180910390a3505050565b6000818152600a602052604081206005018054849290612a48908490613b18565b90915550505050565b6000818152600a602052604081206005018054849290612a48908490613b73565b80471015612adc576040517f08c379a000000000000000000000000000000000000000000000000000000000815260206004820152601d60248201527f416464726573733a20696e73756666696369656e742062616c616e63650000006044820152606401610264565b60008273ffffffffffffffffffffffffffffffffffffffff168260405160006040518083038185875af1925050503d8060008114612b36576040519150601f19603f3d011682016040523d82523d6000602084013e612b3b565b606091505b5050905080610ab8576040517f08c379a000000000000000000000000000000000000000000000000000000000815260206004820152603a60248201527f416464726573733a20756e61626c6520746f2073656e642076616c75652c207260448201527f6563697069656e74206d617920686176652072657665727465640000000000006064820152608401610264565b612bd7848484612216565b612be384848484612f47565b6107ae576040517f08c379a000000000000000000000000000000000000000000000000000000000815260206004820152603260248201527f4552433732313a207472616e7366657220746f206e6f6e20455243373231526560448201527f63656976657220696d706c656d656e74657200000000000000000000000000006064820152608401610264565b6112e682826040518060200160405280600081525061313a565b606081600003612ccc57505060408051808201909152600181527f3000000000000000000000000000000000000000000000000000000000000000602082015290565b8160005b8115612cf65780612ce081613bc7565b9150612cef9050600a83613b5f565b9150612cd0565b60008167ffffffffffffffff811115612d1157612d116136f3565b6040519080825280601f01601f191660200182016040528015612d3b576020820181803683370190505b5090505b8415610b2e57612d50600183613b73565b9150612d5d600a86613c2e565b612d68906030613b18565b60f81b818381518110612d7d57612d7d613bff565b60200101907effffffffffffffffffffffffffffffffffffffffffffffffffffffffffffff1916908160001a905350612db7600a86613b5f565b9450612d3f565b60007fffffffff0000000000000000000000000000000000000000000000000000000082167f80ac58cd000000000000000000000000000000000000000000000000000000001480612e5157507fffffffff0000000000000000000000000000000000000000000000000000000082167f5b5e139f00000000000000000000000000000000000000000000000000000000145b806107bf57507f01ffc9a7000000000000000000000000000000000000000000000000000000007fffffffff000000000000000000000000000000000000000000000000000000008316146107bf565b6000612eac82610b36565b6000818152600a60205260409020600301549091504210801590612ee057506000818152600a602052604090206004015442105b156107ae576040517f08c379a000000000000000000000000000000000000000000000000000000000815260206004820152600f60248201527f5452414e534645525f50415553454400000000000000000000000000000000006044820152606401610264565b600073ffffffffffffffffffffffffffffffffffffffff84163b1561312f576040517f150b7a0200000000000000000000000000000000000000000000000000000000815273ffffffffffffffffffffffffffffffffffffffff85169063150b7a0290612fbe903390899088908890600401613cb2565b6020604051808303816000875af1925050508015613017575060408051601f3d9081017fffffffffffffffffffffffffffffffffffffffffffffffffffffffffffffffe016820190925261301491810190613cfb565b60015b6130e4573d808015613045576040519150601f19603f3d011682016040523d82523d6000602084013e61304a565b606091505b5080516000036130dc576040517f08c379a000000000000000000000000000000000000000000000000000000000815260206004820152603260248201527f4552433732313a207472616e7366657220746f206e6f6e20455243373231526560448201527f63656976657220696d706c656d656e74657200000000000000000000000000006064820152608401610264565b805181602001fd5b7fffffffff00000000000000000000000000000000000000000000000000000000167f150b7a0200000000000000000000000000000000000000000000000000000000149050610b2e565b506001949350505050565b61314483836131dd565b6131516000848484612f47565b610ab8576040517f08c379a000000000000000000000000000000000000000000000000000000000815260206004820152603260248201527f4552433732313a207472616e7366657220746f206e6f6e20455243373231526560448201527f63656976657220696d706c656d656e74657200000000000000000000000000006064820152608401610264565b73ffffffffffffffffffffffffffffffffffffffff821661325a576040517f08c379a000000000000000000000000000000000000000000000000000000000815260206004820181905260248201527f4552433732313a206d696e7420746f20746865207a65726f20616464726573736044820152606401610264565b60008181526004602052604090205473ffffffffffffffffffffffffffffffffffffffff16156132e6576040517f08c379a000000000000000000000000000000000000000000000000000000000815260206004820152601c60248201527f4552433732313a20746f6b656e20616c7265616479206d696e746564000000006044820152606401610264565b6132f260008383612ea1565b73ffffffffffffffffffffffffffffffffffffffff82166000908152600560205260408120805460019290613328908490613b18565b909155505060008181526004602052604080822080547fffffffffffffffffffffffff00000000000000000000000000000000000000001673ffffffffffffffffffffffffffffffffffffffff861690811790915590518392907fddf252ad1be2c89b69c2b068fc378daa952ba7f163c4a11628f55a4df523b3ef908290a45050565b8280546133b790613a96565b90600052602060002090601f0160209004810192826133d9576000855561343d565b82601f10613410578280017fffffffffffffffffffffffffffffffffffffffffffffffffffffffffffffff0082351617855561343d565b8280016001018555821561343d579182015b8281111561343d578235825591602001919060010190613422565b506134499291506134c1565b5090565b82805461345990613a96565b90600052602060002090601f01602090048101928261347b576000855561343d565b82601f1061349457805160ff191683800117855561343d565b8280016001018555821561343d579182015b8281111561343d5782518255916020019190600101906134a6565b5b8082111561344957600081556001016134c2565b6000806000604084860312156134eb57600080fd5b833567ffffffffffffffff8082111561350357600080fd5b818601915086601f83011261351757600080fd5b81358181111561352657600080fd5b87602082850101111561353857600080fd5b6020928301989097509590910135949350505050565b7fffffffff0000000000000000000000000000000000000000000000000000000081168114611e4a57600080fd5b60006020828403121561358e57600080fd5b81356135998161354e565b9392505050565b60005b838110156135bb5781810151838201526020016135a3565b838111156107ae5750506000910152565b600081518084526135e48160208601602086016135a0565b601f017fffffffffffffffffffffffffffffffffffffffffffffffffffffffffffffffe0169290920160200192915050565b60208152600061359960208301846135cc565b60006020828403121561363b57600080fd5b5035919050565b803573ffffffffffffffffffffffffffffffffffffffff8116811461366657600080fd5b919050565b6000806040838503121561367e57600080fd5b61368783613642565b946020939093013593505050565b6000806000606084860312156136aa57600080fd5b6136b384613642565b92506136c160208501613642565b9150604084013590509250925092565b600080604083850312156136e457600080fd5b50508035926020909101359150565b7f4e487b7100000000000000000000000000000000000000000000000000000000600052604160045260246000fd5b600067ffffffffffffffff8084111561373d5761373d6136f3565b604051601f85017fffffffffffffffffffffffffffffffffffffffffffffffffffffffffffffffe0908116603f01168101908282118183101715613783576137836136f3565b8160405280935085815286868601111561379c57600080fd5b858560208301376000602087830101525050509392505050565b600082601f8301126137c757600080fd5b61359983833560208501613722565b600080600080600060a086880312156137ee57600080fd5b853594506020860135935060408601359250606086013567ffffffffffffffff8082111561381b57600080fd5b61382789838a016137b6565b9350608088013591508082111561383d57600080fd5b5061384a888289016137b6565b9150509295509295909350565b60006020828403121561386957600080fd5b61359982613642565b6000806040838503121561388557600080fd5b61388e83613642565b915060208301356bffffffffffffffffffffffff811681146138af57600080fd5b809150509250929050565b600080604083850312156138cd57600080fd5b6138d683613642565b9150602083013580151581146138af57600080fd5b60008060006060848603121561390057600080fd5b505081359360208301359350604090920135919050565b6000806000806080858703121561392d57600080fd5b61393685613642565b935061394460208601613642565b925060408501359150606085013567ffffffffffffffff81111561396757600080fd5b8501601f8101871361397857600080fd5b61398787823560208401613722565b91505092959194509250565b6000806000604084860312156139a857600080fd5b833567ffffffffffffffff808211156139c057600080fd5b818601915086601f8301126139d457600080fd5b8135818111156139e357600080fd5b8760208260051b850101111561353857600080fd5b60008060408385031215613a0b57600080fd5b613a1483613642565b9150613a2260208401613642565b90509250929050565b60006101408c83528b60208401528a60408401528960608401528860808401528760a08401528660c08401528560e084015280610100840152613a70818401866135cc565b9050828103610120840152613a8581856135cc565b9d9c50505050505050505050505050565b600181811c90821680613aaa57607f821691505b602082108103613ae3577f4e487b7100000000000000000000000000000000000000000000000000000000600052602260045260246000fd5b50919050565b7f4e487b7100000000000000000000000000000000000000000000000000000000600052601160045260246000fd5b60008219821115613b2b57613b2b613ae9565b500190565b7f4e487b7100000000000000000000000000000000000000000000000000000000600052601260045260246000fd5b600082613b6e57613b6e613b30565b500490565b600082821015613b8557613b85613ae9565b500390565b6000817fffffffffffffffffffffffffffffffffffffffffffffffffffffffffffffffff0483118215151615613bc257613bc2613ae9565b500290565b60007fffffffffffffffffffffffffffffffffffffffffffffffffffffffffffffffff8203613bf857613bf8613ae9565b5060010190565b7f4e487b7100000000000000000000000000000000000000000000000000000000600052603260045260246000fd5b600082613c3d57613c3d613b30565b500690565b60008351613c548184602088016135a0565b835190830190613c688183602088016135a0565b7f2e6a736f6e0000000000000000000000000000000000000000000000000000009101908152600501949350505050565b828152604060208201526000610b2e60408301846135cc565b600073ffffffffffffffffffffffffffffffffffffffff808716835280861660208401525083604083015260806060830152613cf160808301846135cc565b9695505050505050565b600060208284031215613d0d57600080fd5b81516135998161354e56fea2646970667358221220e0f53f7200d8020f1f2c8a581a7d1ac4df2f1060fd193bc9d1695032252f1dbf64736f6c634300080d0033",
  "devdoc": {
    "kind": "dev",
    "methods": {
      "approve(address,uint256)": {
        "details": "See {IERC721-approve}."
      },
      "balanceOf(address)": {
        "details": "See {IERC721-balanceOf}."
      },
      "getApproved(uint256)": {
        "details": "See {IERC721-getApproved}."
      },
      "isApprovedForAll(address,address)": {
        "details": "See {IERC721-isApprovedForAll}."
      },
      "name()": {
        "details": "See {IERC721Metadata-name}."
      },
      "owner()": {
        "details": "Returns the address of the current owner."
      },
      "ownerOf(uint256)": {
        "details": "See {IERC721-ownerOf}."
      },
      "paused()": {
        "details": "Returns true if the contract is paused, and false otherwise."
      },
      "renounceOwnership()": {
        "details": "Leaves the contract without owner. It will not be possible to call `onlyOwner` functions anymore. Can only be called by the current owner. NOTE: Renouncing ownership will leave the contract without an owner, thereby removing any functionality that is only available to the owner."
      },
      "royaltyInfo(uint256,uint256)": {
        "details": "Returns how much royalty is owed and to whom, based on a sale price that may be denominated in any unit of exchange. The royalty amount is denominated and should be paid in that same unit of exchange."
      },
      "safeTransferFrom(address,address,uint256)": {
        "details": "See {IERC721-safeTransferFrom}."
      },
      "safeTransferFrom(address,address,uint256,bytes)": {
        "details": "See {IERC721-safeTransferFrom}."
      },
      "setApprovalForAll(address,bool)": {
        "details": "See {IERC721-setApprovalForAll}."
      },
      "symbol()": {
        "details": "See {IERC721Metadata-symbol}."
      },
      "tokenURI(uint256)": {
        "details": "See {IERC721Metadata-tokenURI}."
      },
      "transferFrom(address,address,uint256)": {
        "details": "See {IERC721-transferFrom}."
      },
      "transferOwnership(address)": {
        "details": "Transfers ownership of the contract to a new account (`newOwner`). Can only be called by the current owner."
      }
    },
    "version": 1
  },
  "userdoc": {
    "kind": "user",
    "methods": {},
    "version": 1
  },
  "storageLayout": {
    "storage": [
      {
        "astId": 7,
        "contract": "contracts/TheRealDream.sol:TheRealDream",
        "label": "_owner",
        "offset": 0,
        "slot": "0",
        "type": "t_address"
      },
      {
        "astId": 141,
        "contract": "contracts/TheRealDream.sol:TheRealDream",
        "label": "_paused",
        "offset": 20,
        "slot": "0",
        "type": "t_bool"
      },
      {
        "astId": 226,
        "contract": "contracts/TheRealDream.sol:TheRealDream",
        "label": "_status",
        "offset": 0,
        "slot": "1",
        "type": "t_uint256"
      },
      {
        "astId": 281,
        "contract": "contracts/TheRealDream.sol:TheRealDream",
        "label": "_name",
        "offset": 0,
        "slot": "2",
        "type": "t_string_storage"
      },
      {
        "astId": 283,
        "contract": "contracts/TheRealDream.sol:TheRealDream",
        "label": "_symbol",
        "offset": 0,
        "slot": "3",
        "type": "t_string_storage"
      },
      {
        "astId": 287,
        "contract": "contracts/TheRealDream.sol:TheRealDream",
        "label": "_owners",
        "offset": 0,
        "slot": "4",
        "type": "t_mapping(t_uint256,t_address)"
      },
      {
        "astId": 291,
        "contract": "contracts/TheRealDream.sol:TheRealDream",
        "label": "_balances",
        "offset": 0,
        "slot": "5",
        "type": "t_mapping(t_address,t_uint256)"
      },
      {
        "astId": 295,
        "contract": "contracts/TheRealDream.sol:TheRealDream",
        "label": "_tokenApprovals",
        "offset": 0,
        "slot": "6",
        "type": "t_mapping(t_uint256,t_address)"
      },
      {
        "astId": 301,
        "contract": "contracts/TheRealDream.sol:TheRealDream",
        "label": "_operatorApprovals",
        "offset": 0,
        "slot": "7",
        "type": "t_mapping(t_address,t_mapping(t_address,t_bool))"
      },
      {
        "astId": 1299,
        "contract": "contracts/TheRealDream.sol:TheRealDream",
        "label": "_defaultRoyaltyInfo",
        "offset": 0,
        "slot": "8",
        "type": "t_struct(RoyaltyInfo)1296_storage"
      },
      {
        "astId": 1304,
        "contract": "contracts/TheRealDream.sol:TheRealDream",
        "label": "_tokenRoyaltyInfo",
        "offset": 0,
        "slot": "9",
        "type": "t_mapping(t_uint256,t_struct(RoyaltyInfo)1296_storage)"
      },
      {
        "astId": 2801,
        "contract": "contracts/TheRealDream.sol:TheRealDream",
        "label": "rewards",
        "offset": 0,
        "slot": "10",
        "type": "t_mapping(t_uint256,t_struct(RewardData)2796_storage)"
      },
      {
        "astId": 2803,
        "contract": "contracts/TheRealDream.sol:TheRealDream",
        "label": "rewardsIndex",
        "offset": 0,
        "slot": "11",
        "type": "t_uint256"
      },
      {
        "astId": 2805,
        "contract": "contracts/TheRealDream.sol:TheRealDream",
        "label": "totalSupply",
        "offset": 0,
        "slot": "12",
        "type": "t_uint256"
      }
    ],
    "types": {
      "t_address": {
        "encoding": "inplace",
        "label": "address",
        "numberOfBytes": "20"
      },
      "t_bool": {
        "encoding": "inplace",
        "label": "bool",
        "numberOfBytes": "1"
      },
      "t_mapping(t_address,t_bool)": {
        "encoding": "mapping",
        "key": "t_address",
        "label": "mapping(address => bool)",
        "numberOfBytes": "32",
        "value": "t_bool"
      },
      "t_mapping(t_address,t_mapping(t_address,t_bool))": {
        "encoding": "mapping",
        "key": "t_address",
        "label": "mapping(address => mapping(address => bool))",
        "numberOfBytes": "32",
        "value": "t_mapping(t_address,t_bool)"
      },
      "t_mapping(t_address,t_uint256)": {
        "encoding": "mapping",
        "key": "t_address",
        "label": "mapping(address => uint256)",
        "numberOfBytes": "32",
        "value": "t_uint256"
      },
      "t_mapping(t_uint256,t_address)": {
        "encoding": "mapping",
        "key": "t_uint256",
        "label": "mapping(uint256 => address)",
        "numberOfBytes": "32",
        "value": "t_address"
      },
      "t_mapping(t_uint256,t_struct(RewardData)2796_storage)": {
        "encoding": "mapping",
        "key": "t_uint256",
        "label": "mapping(uint256 => struct TheRealDreamStorage.RewardData)",
        "numberOfBytes": "32",
        "value": "t_struct(RewardData)2796_storage"
      },
      "t_mapping(t_uint256,t_struct(RoyaltyInfo)1296_storage)": {
        "encoding": "mapping",
        "key": "t_uint256",
        "label": "mapping(uint256 => struct ERC2981.RoyaltyInfo)",
        "numberOfBytes": "32",
        "value": "t_struct(RoyaltyInfo)1296_storage"
      },
      "t_mapping(t_uint256,t_uint256)": {
        "encoding": "mapping",
        "key": "t_uint256",
        "label": "mapping(uint256 => uint256)",
        "numberOfBytes": "32",
        "value": "t_uint256"
      },
      "t_string_storage": {
        "encoding": "bytes",
        "label": "string",
        "numberOfBytes": "32"
      },
      "t_struct(RewardData)2796_storage": {
        "encoding": "inplace",
        "label": "struct TheRealDreamStorage.RewardData",
        "members": [
          {
            "astId": 2773,
            "contract": "contracts/TheRealDream.sol:TheRealDream",
            "label": "maximumTokens",
            "offset": 0,
            "slot": "0",
            "type": "t_uint256"
          },
          {
            "astId": 2775,
            "contract": "contracts/TheRealDream.sol:TheRealDream",
            "label": "cooldownPeriod",
            "offset": 0,
            "slot": "1",
            "type": "t_uint256"
          },
          {
            "astId": 2777,
            "contract": "contracts/TheRealDream.sol:TheRealDream",
            "label": "minimumDistributionPeriod",
            "offset": 0,
            "slot": "2",
            "type": "t_uint256"
          },
          {
            "astId": 2779,
            "contract": "contracts/TheRealDream.sol:TheRealDream",
            "label": "distributionStartTime",
            "offset": 0,
            "slot": "3",
            "type": "t_uint256"
          },
          {
            "astId": 2781,
            "contract": "contracts/TheRealDream.sol:TheRealDream",
            "label": "distributionEndTime",
            "offset": 0,
            "slot": "4",
            "type": "t_uint256"
          },
          {
            "astId": 2783,
            "contract": "contracts/TheRealDream.sol:TheRealDream",
            "label": "totalBalance",
            "offset": 0,
            "slot": "5",
            "type": "t_uint256"
          },
          {
            "astId": 2785,
            "contract": "contracts/TheRealDream.sol:TheRealDream",
            "label": "totalReleased",
            "offset": 0,
            "slot": "6",
            "type": "t_uint256"
          },
          {
            "astId": 2787,
            "contract": "contracts/TheRealDream.sol:TheRealDream",
            "label": "totalSupply",
            "offset": 0,
            "slot": "7",
            "type": "t_uint256"
          },
          {
            "astId": 2789,
            "contract": "contracts/TheRealDream.sol:TheRealDream",
            "label": "baseURI",
            "offset": 0,
            "slot": "8",
            "type": "t_string_storage"
          },
          {
            "astId": 2791,
            "contract": "contracts/TheRealDream.sol:TheRealDream",
            "label": "assetURI",
            "offset": 0,
            "slot": "9",
            "type": "t_string_storage"
          },
          {
            "astId": 2795,
            "contract": "contracts/TheRealDream.sol:TheRealDream",
            "label": "released",
            "offset": 0,
            "slot": "10",
            "type": "t_mapping(t_uint256,t_uint256)"
          }
        ],
        "numberOfBytes": "352"
      },
      "t_struct(RoyaltyInfo)1296_storage": {
        "encoding": "inplace",
        "label": "struct ERC2981.RoyaltyInfo",
        "members": [
          {
            "astId": 1293,
            "contract": "contracts/TheRealDream.sol:TheRealDream",
            "label": "receiver",
            "offset": 0,
            "slot": "0",
            "type": "t_address"
          },
          {
            "astId": 1295,
            "contract": "contracts/TheRealDream.sol:TheRealDream",
            "label": "royaltyFraction",
            "offset": 20,
            "slot": "0",
            "type": "t_uint96"
          }
        ],
        "numberOfBytes": "32"
      },
      "t_uint256": {
        "encoding": "inplace",
        "label": "uint256",
        "numberOfBytes": "32"
      },
      "t_uint96": {
        "encoding": "inplace",
        "label": "uint96",
        "numberOfBytes": "12"
      }
    }
  }
}