{
  "address": "0x0D51b38742e8113a75aBfEb318827101D7A83d8E",
  "abi": [
    {
      "inputs": [
        {
          "internalType": "uint256",
          "name": "_maximumTokens",
          "type": "uint256"
        },
        {
          "internalType": "uint256",
          "name": "_cooldownPeriod",
          "type": "uint256"
        },
        {
          "internalType": "uint256",
          "name": "_minimumDistributionPeriod",
          "type": "uint256"
        },
        {
          "internalType": "string",
          "name": "_name",
          "type": "string"
        },
        {
          "internalType": "string",
          "name": "_symbol",
          "type": "string"
        },
        {
          "internalType": "string",
          "name": "_baseURI",
          "type": "string"
        },
        {
          "internalType": "string",
          "name": "_assetURI",
          "type": "string"
        }
      ],
      "stateMutability": "nonpayable",
      "type": "constructor"
    },
    {
      "anonymous": false,
      "inputs": [
        {
          "indexed": true,
          "internalType": "address",
          "name": "owner",
          "type": "address"
        },
        {
          "indexed": true,
          "internalType": "address",
          "name": "approved",
          "type": "address"
        },
        {
          "indexed": true,
          "internalType": "uint256",
          "name": "tokenId",
          "type": "uint256"
        }
      ],
      "name": "Approval",
      "type": "event"
    },
    {
      "anonymous": false,
      "inputs": [
        {
          "indexed": true,
          "internalType": "address",
          "name": "owner",
          "type": "address"
        },
        {
          "indexed": true,
          "internalType": "address",
          "name": "operator",
          "type": "address"
        },
        {
          "indexed": false,
          "internalType": "bool",
          "name": "approved",
          "type": "bool"
        }
      ],
      "name": "ApprovalForAll",
      "type": "event"
    },
    {
      "anonymous": false,
      "inputs": [
        {
          "indexed": true,
          "internalType": "address",
          "name": "previousOwner",
          "type": "address"
        },
        {
          "indexed": true,
          "internalType": "address",
          "name": "newOwner",
          "type": "address"
        }
      ],
      "name": "OwnershipTransferred",
      "type": "event"
    },
    {
      "anonymous": false,
      "inputs": [
        {
          "indexed": false,
          "internalType": "address",
          "name": "account",
          "type": "address"
        }
      ],
      "name": "Paused",
      "type": "event"
    },
    {
      "anonymous": false,
      "inputs": [
        {
          "indexed": true,
          "internalType": "uint256",
          "name": "tokenId",
          "type": "uint256"
        },
        {
          "indexed": false,
          "internalType": "uint256",
          "name": "payment",
          "type": "uint256"
        },
        {
          "indexed": true,
          "internalType": "address",
          "name": "receiver",
          "type": "address"
        }
      ],
      "name": "PaymentReleased",
      "type": "event"
    },
    {
      "anonymous": false,
      "inputs": [
        {
          "indexed": false,
          "internalType": "uint256",
          "name": "depositAmount",
          "type": "uint256"
        },
        {
          "indexed": false,
          "internalType": "uint256",
          "name": "startTime",
          "type": "uint256"
        },
        {
          "indexed": false,
          "internalType": "uint256",
          "name": "endTime",
          "type": "uint256"
        }
      ],
      "name": "PrepareRewards",
      "type": "event"
    },
    {
      "anonymous": false,
      "inputs": [
        {
          "indexed": true,
          "internalType": "uint256",
          "name": "index",
          "type": "uint256"
        },
        {
          "indexed": false,
          "internalType": "uint256",
          "name": "maximumTokens",
          "type": "uint256"
        },
        {
          "indexed": false,
          "internalType": "string",
          "name": "assetURI",
          "type": "string"
        }
      ],
      "name": "RewardAssetAdded",
      "type": "event"
    },
    {
      "anonymous": false,
      "inputs": [
        {
          "indexed": true,
          "internalType": "address",
          "name": "from",
          "type": "address"
        },
        {
          "indexed": true,
          "internalType": "address",
          "name": "to",
          "type": "address"
        },
        {
          "indexed": true,
          "internalType": "uint256",
          "name": "tokenId",
          "type": "uint256"
        }
      ],
      "name": "Transfer",
      "type": "event"
    },
    {
      "anonymous": false,
      "inputs": [
        {
          "indexed": false,
          "internalType": "address",
          "name": "account",
          "type": "address"
        }
      ],
      "name": "Unpaused",
      "type": "event"
    },
    {
      "inputs": [],
      "name": "PREFIX_MULTIPLIER",
      "outputs": [
        {
          "internalType": "uint256",
          "name": "",
          "type": "uint256"
        }
      ],
      "stateMutability": "view",
      "type": "function"
    },
    {
      "inputs": [
        {
          "internalType": "uint256",
          "name": "_maximumTokens",
          "type": "uint256"
        },
        {
          "internalType": "uint256",
          "name": "_cooldownPeriod",
          "type": "uint256"
        },
        {
          "internalType": "uint256",
          "name": "_minimumDistributionPeriod",
          "type": "uint256"
        },
        {
          "internalType": "string",
          "name": "_baseURI",
          "type": "string"
        },
        {
          "internalType": "string",
          "name": "_assetURI",
          "type": "string"
        }
      ],
      "name": "addNewReward",
      "outputs": [],
      "stateMutability": "nonpayable",
      "type": "function"
    },
    {
      "inputs": [
        {
          "internalType": "address[]",
          "name": "_receivers",
          "type": "address[]"
        },
        {
          "internalType": "uint256",
          "name": "_rewardIndex",
          "type": "uint256"
        }
      ],
      "name": "airdrop",
      "outputs": [],
      "stateMutability": "nonpayable",
      "type": "function"
    },
    {
      "inputs": [
        {
          "internalType": "address",
          "name": "to",
          "type": "address"
        },
        {
          "internalType": "uint256",
          "name": "tokenId",
          "type": "uint256"
        }
      ],
      "name": "approve",
      "outputs": [],
      "stateMutability": "nonpayable",
      "type": "function"
    },
    {
      "inputs": [
        {
          "internalType": "address",
          "name": "owner",
          "type": "address"
        }
      ],
      "name": "balanceOf",
      "outputs": [
        {
          "internalType": "uint256",
          "name": "",
          "type": "uint256"
        }
      ],
      "stateMutability": "view",
      "type": "function"
    },
    {
      "inputs": [
        {
          "internalType": "uint256",
          "name": "tokenId",
          "type": "uint256"
        }
      ],
      "name": "getApproved",
      "outputs": [
        {
          "internalType": "address",
          "name": "",
          "type": "address"
        }
      ],
      "stateMutability": "view",
      "type": "function"
    },
    {
      "inputs": [
        {
          "internalType": "uint256",
          "name": "_tokenId",
          "type": "uint256"
        }
      ],
      "name": "getRewardIndex",
      "outputs": [
        {
          "internalType": "uint256",
          "name": "",
          "type": "uint256"
        }
      ],
      "stateMutability": "view",
      "type": "function"
    },
    {
      "inputs": [
        {
          "internalType": "address",
          "name": "owner",
          "type": "address"
        },
        {
          "internalType": "address",
          "name": "operator",
          "type": "address"
        }
      ],
      "name": "isApprovedForAll",
      "outputs": [
        {
          "internalType": "bool",
          "name": "",
          "type": "bool"
        }
      ],
      "stateMutability": "view",
      "type": "function"
    },
    {
      "inputs": [],
      "name": "name",
      "outputs": [
        {
          "internalType": "string",
          "name": "",
          "type": "string"
        }
      ],
      "stateMutability": "view",
      "type": "function"
    },
    {
      "inputs": [],
      "name": "owner",
      "outputs": [
        {
          "internalType": "address",
          "name": "",
          "type": "address"
        }
      ],
      "stateMutability": "view",
      "type": "function"
    },
    {
      "inputs": [
        {
          "internalType": "uint256",
          "name": "tokenId",
          "type": "uint256"
        }
      ],
      "name": "ownerOf",
      "outputs": [
        {
          "internalType": "address",
          "name": "",
          "type": "address"
        }
      ],
      "stateMutability": "view",
      "type": "function"
    },
    {
      "inputs": [],
      "name": "pause",
      "outputs": [],
      "stateMutability": "nonpayable",
      "type": "function"
    },
    {
      "inputs": [],
      "name": "paused",
      "outputs": [
        {
          "internalType": "bool",
          "name": "",
          "type": "bool"
        }
      ],
      "stateMutability": "view",
      "type": "function"
    },
    {
      "inputs": [
        {
          "internalType": "uint256",
          "name": "_distributionStartTime",
          "type": "uint256"
        },
        {
          "internalType": "uint256",
          "name": "_distributionEndTime",
          "type": "uint256"
        },
        {
          "internalType": "uint256",
          "name": "_rewardIndex",
          "type": "uint256"
        }
      ],
      "name": "prepareForRewards",
      "outputs": [],
      "stateMutability": "payable",
      "type": "function"
    },
    {
      "inputs": [
        {
          "internalType": "uint256",
          "name": "tokenId",
          "type": "uint256"
        }
      ],
      "name": "releaseReward",
      "outputs": [],
      "stateMutability": "nonpayable",
      "type": "function"
    },
    {
      "inputs": [],
      "name": "removeRoyalty",
      "outputs": [],
      "stateMutability": "nonpayable",
      "type": "function"
    },
    {
      "inputs": [],
      "name": "renounceOwnership",
      "outputs": [],
      "stateMutability": "nonpayable",
      "type": "function"
    },
    {
      "inputs": [
        {
          "internalType": "uint256",
          "name": "",
          "type": "uint256"
        }
      ],
      "name": "rewards",
      "outputs": [
        {
          "internalType": "uint256",
          "name": "maximumTokens",
          "type": "uint256"
        },
        {
          "internalType": "uint256",
          "name": "cooldownPeriod",
          "type": "uint256"
        },
        {
          "internalType": "uint256",
          "name": "minimumDistributionPeriod",
          "type": "uint256"
        },
        {
          "internalType": "uint256",
          "name": "distributionStartTime",
          "type": "uint256"
        },
        {
          "internalType": "uint256",
          "name": "distributionEndTime",
          "type": "uint256"
        },
        {
          "internalType": "uint256",
          "name": "totalBalance",
          "type": "uint256"
        },
        {
          "internalType": "uint256",
          "name": "totalReleased",
          "type": "uint256"
        },
        {
          "internalType": "uint256",
          "name": "totalSupply",
          "type": "uint256"
        },
        {
          "internalType": "string",
          "name": "baseURI",
          "type": "string"
        },
        {
          "internalType": "string",
          "name": "assetURI",
          "type": "string"
        }
      ],
      "stateMutability": "view",
      "type": "function"
    },
    {
      "inputs": [],
      "name": "rewardsIndex",
      "outputs": [
        {
          "internalType": "uint256",
          "name": "",
          "type": "uint256"
        }
      ],
      "stateMutability": "view",
      "type": "function"
    },
    {
      "inputs": [
        {
          "internalType": "uint256",
          "name": "_tokenId",
          "type": "uint256"
        },
        {
          "internalType": "uint256",
          "name": "_salePrice",
          "type": "uint256"
        }
      ],
      "name": "royaltyInfo",
      "outputs": [
        {
          "internalType": "address",
          "name": "",
          "type": "address"
        },
        {
          "internalType": "uint256",
          "name": "",
          "type": "uint256"
        }
      ],
      "stateMutability": "view",
      "type": "function"
    },
    {
      "inputs": [
        {
          "internalType": "address",
          "name": "from",
          "type": "address"
        },
        {
          "internalType": "address",
          "name": "to",
          "type": "address"
        },
        {
          "internalType": "uint256",
          "name": "tokenId",
          "type": "uint256"
        }
      ],
      "name": "safeTransferFrom",
      "outputs": [],
      "stateMutability": "nonpayable",
      "type": "function"
    },
    {
      "inputs": [
        {
          "internalType": "address",
          "name": "from",
          "type": "address"
        },
        {
          "internalType": "address",
          "name": "to",
          "type": "address"
        },
        {
          "internalType": "uint256",
          "name": "tokenId",
          "type": "uint256"
        },
        {
          "internalType": "bytes",
          "name": "_data",
          "type": "bytes"
        }
      ],
      "name": "safeTransferFrom",
      "outputs": [],
      "stateMutability": "nonpayable",
      "type": "function"
    },
    {
      "inputs": [
        {
          "internalType": "address",
          "name": "operator",
          "type": "address"
        },
        {
          "internalType": "bool",
          "name": "approved",
          "type": "bool"
        }
      ],
      "name": "setApprovalForAll",
      "outputs": [],
      "stateMutability": "nonpayable",
      "type": "function"
    },
    {
      "inputs": [
        {
          "internalType": "string",
          "name": "_baseURI",
          "type": "string"
        },
        {
          "internalType": "uint256",
          "name": "_rewardIndex",
          "type": "uint256"
        }
      ],
      "name": "setBaseURI",
      "outputs": [],
      "stateMutability": "nonpayable",
      "type": "function"
    },
    {
      "inputs": [
        {
          "internalType": "address",
          "name": "_account",
          "type": "address"
        },
        {
          "internalType": "uint96",
          "name": "_fee",
          "type": "uint96"
        }
      ],
      "name": "setRoyalty",
      "outputs": [],
      "stateMutability": "nonpayable",
      "type": "function"
    },
    {
      "inputs": [
        {
          "internalType": "bytes4",
          "name": "interfaceId",
          "type": "bytes4"
        }
      ],
      "name": "supportsInterface",
      "outputs": [
        {
          "internalType": "bool",
          "name": "",
          "type": "bool"
        }
      ],
      "stateMutability": "view",
      "type": "function"
    },
    {
      "inputs": [],
      "name": "symbol",
      "outputs": [
        {
          "internalType": "string",
          "name": "",
          "type": "string"
        }
      ],
      "stateMutability": "view",
      "type": "function"
    },
    {
      "inputs": [
        {
          "internalType": "uint256",
          "name": "tokenId",
          "type": "uint256"
        }
      ],
      "name": "tokenURI",
      "outputs": [
        {
          "internalType": "string",
          "name": "",
          "type": "string"
        }
      ],
      "stateMutability": "view",
      "type": "function"
    },
    {
      "inputs": [
        {
          "internalType": "address",
          "name": "from",
          "type": "address"
        },
        {
          "internalType": "address",
          "name": "to",
          "type": "address"
        },
        {
          "internalType": "uint256",
          "name": "tokenId",
          "type": "uint256"
        }
      ],
      "name": "transferFrom",
      "outputs": [],
      "stateMutability": "nonpayable",
      "type": "function"
    },
    {
      "inputs": [
        {
          "internalType": "address",
          "name": "newOwner",
          "type": "address"
        }
      ],
      "name": "transferOwnership",
      "outputs": [],
      "stateMutability": "nonpayable",
      "type": "function"
    },
    {
      "inputs": [],
      "name": "unpause",
      "outputs": [],
      "stateMutability": "nonpayable",
      "type": "function"
    },
    {
      "stateMutability": "payable",
      "type": "receive"
    }
  ],
  "transactionHash": "0xcaac437f081ef6e82306325f5e8a8a470861ddaee5cdb80d07c42195d36c6f40",
  "args": [
    4,
    120,
    86400,
    "The Real Dream",
    "TRD",
    "therealdream.com/api/",
    "youtube.com/video/xyz"
  ],
  "numDeployments": 1,
  "solcInputHash": "bcdb3d0990d0828f167fe9cd413e0e16",
  "bytecode": "0x60806040523480156200001157600080fd5b50604051620030a7380380620030a783398101604081905262000034916200031b565b83836200004133620000a6565b6000805460ff60a01b19169055600180558151620000679060029060208501906200019b565b5080516200007d9060039060208401906200019b565b50506001600b819055905062000098818989898787620000f6565b50505050505050506200046b565b600080546001600160a01b038381166001600160a01b0319831681178455604051919092169283917f8be0079c531659141344cd1fd0a4f28419497f9722a3daafe3b4186f6b6457e09190a35050565b6000868152600a60209081526040909120868155835162000120926008909201918501906200019b565b506000868152600a602090815260409091206001810186905560028101859055825162000156926009909201918401906200019b565b50857fdb1170671cc7fbd396e37ef7b995f6448be6c3784b6aec8c30f27020c9d326c586836040516200018b929190620003f3565b60405180910390a2505050505050565b828054620001a9906200042f565b90600052602060002090601f016020900481019282620001cd576000855562000218565b82601f10620001e857805160ff191683800117855562000218565b8280016001018555821562000218579182015b8281111562000218578251825591602001919060010190620001fb565b50620002269291506200022a565b5090565b5b808211156200022657600081556001016200022b565b634e487b7160e01b600052604160045260246000fd5b60005b83811015620002745781810151838201526020016200025a565b8381111562000284576000848401525b50505050565b600082601f8301126200029c57600080fd5b81516001600160401b0380821115620002b957620002b962000241565b604051601f8301601f19908116603f01168101908282118183101715620002e457620002e462000241565b81604052838152866020858801011115620002fe57600080fd5b6200031184602083016020890162000257565b9695505050505050565b600080600080600080600060e0888a0312156200033757600080fd5b8751602089015160408a015160608b015192995090975095506001600160401b03808211156200036657600080fd5b620003748b838c016200028a565b955060808a01519150808211156200038b57600080fd5b620003998b838c016200028a565b945060a08a0151915080821115620003b057600080fd5b620003be8b838c016200028a565b935060c08a0151915080821115620003d557600080fd5b50620003e48a828b016200028a565b91505092959891949750929550565b82815260406020820152600082518060408401526200041a81606085016020870162000257565b601f01601f1916919091016060019392505050565b600181811c908216806200044457607f821691505b6020821081036200046557634e487b7160e01b600052602260045260246000fd5b50919050565b612c2c806200047b6000396000f3fe6080604052600436106101db5760003560e01c806375ec5bd211610102578063b779736711610095578063e985e9c511610064578063e985e9c51461058d578063f2fde38b146105d6578063f301af42146105f6578063fa3f926b1461062c57600080fd5b8063b77973671461050d578063b88d4fde1461052d578063c204642c1461054d578063c87b56dd1461056d57600080fd5b80638f2fc60b116100d15780638f2fc60b146104a557806395d89b41146104c5578063a22cb465146104da578063aad217cb146104fa57600080fd5b806375ec5bd2146104475780638456cb591461045d5780638be02eb0146104725780638da5cb5b1461048757600080fd5b80632a55205a1161017a5780636352211e116101495780636352211e146103d2578063687b7ff9146103f257806370a0823114610412578063715018a61461043257600080fd5b80632a55205a1461033f5780633f4ba83a1461037e57806342842e0e146103935780635c975abb146103b357600080fd5b8063081812fc116101b6578063081812fc14610299578063095ea7b3146102d15780631f5f3329146102f157806323b872dd1461031f57600080fd5b80629f25ff1461022057806301ffc9a71461024257806306fdde031461027757600080fd5b3661021b5760405162461bcd60e51b815260206004820152600b60248201526a1393d517d0531313d5d15160aa1b60448201526064015b60405180910390fd5b600080fd5b34801561022c57600080fd5b5061024061023b366004612420565b610644565b005b34801561024e57600080fd5b5061026261025d3660046124ae565b610690565b60405190151581526020015b60405180910390f35b34801561028357600080fd5b5061028c6106a1565b60405161026e919061252a565b3480156102a557600080fd5b506102b96102b436600461253d565b610733565b6040516001600160a01b03909116815260200161026e565b3480156102dd57600080fd5b506102406102ec366004612572565b6107c8565b3480156102fd57600080fd5b5061031161030c36600461253d565b6108dd565b60405190815260200161026e565b34801561032b57600080fd5b5061024061033a36600461259c565b6108ed565b34801561034b57600080fd5b5061035f61035a3660046125d8565b61091e565b604080516001600160a01b03909316835260208301919091520161026e565b34801561038a57600080fd5b506102406109ca565b34801561039f57600080fd5b506102406103ae36600461259c565b610a4e565b3480156103bf57600080fd5b50600054600160a01b900460ff16610262565b3480156103de57600080fd5b506102b96103ed36600461253d565b610a69565b3480156103fe57600080fd5b5061024061040d3660046126a6565b610ae0565b34801561041e57600080fd5b5061031161042d366004612727565b610b38565b34801561043e57600080fd5b50610240610bbf565b34801561045357600080fd5b50610311600b5481565b34801561046957600080fd5b50610240610bf3565b34801561047e57600080fd5b50610240610c72565b34801561049357600080fd5b506000546001600160a01b03166102b9565b3480156104b157600080fd5b506102406104c0366004612742565b610ca6565b3480156104d157600080fd5b5061028c610cde565b3480156104e657600080fd5b506102406104f5366004612785565b610ced565b6102406105083660046127b6565b610cf8565b34801561051957600080fd5b5061024061052836600461253d565b610ead565b34801561053957600080fd5b506102406105483660046127e2565b6110f9565b34801561055957600080fd5b5061024061056836600461285e565b61112b565b34801561057957600080fd5b5061028c61058836600461253d565b611297565b34801561059957600080fd5b506102626105a83660046128c3565b6001600160a01b03918216600090815260076020908152604080832093909416825291909152205460ff1690565b3480156105e257600080fd5b506102406105f1366004612727565b611402565b34801561060257600080fd5b5061061661061136600461253d565b61149d565b60405161026e9a999897969594939291906128f6565b34801561063857600080fd5b506103116305f5e10081565b6000546001600160a01b0316331461066e5760405162461bcd60e51b815260040161021290612961565b6000818152600a6020526040902061068a906008018484612313565b50505050565b600061069b82611601565b92915050565b6060600280546106b090612996565b80601f01602080910402602001604051908101604052809291908181526020018280546106dc90612996565b80156107295780601f106106fe57610100808354040283529160200191610729565b820191906000526020600020905b81548152906001019060200180831161070c57829003601f168201915b5050505050905090565b6000818152600460205260408120546001600160a01b03166107ac5760405162461bcd60e51b815260206004820152602c60248201527f4552433732313a20617070726f76656420717565727920666f72206e6f6e657860448201526b34b9ba32b73a103a37b5b2b760a11b6064820152608401610212565b506000908152600660205260409020546001600160a01b031690565b60006107d382610a69565b9050806001600160a01b0316836001600160a01b0316036108405760405162461bcd60e51b815260206004820152602160248201527f4552433732313a20617070726f76616c20746f2063757272656e74206f776e656044820152603960f91b6064820152608401610212565b336001600160a01b038216148061085c575061085c81336105a8565b6108ce5760405162461bcd60e51b815260206004820152603860248201527f4552433732313a20617070726f76652063616c6c6572206973206e6f74206f7760448201527f6e6572206e6f7220617070726f76656420666f7220616c6c00000000000000006064820152608401610212565b6108d88383611626565b505050565b600061069b6305f5e100836129fc565b6108f73382611694565b6109135760405162461bcd60e51b815260040161021290612a10565b6108d883838361178b565b60008281526009602090815260408083208151808301909252546001600160a01b038116808352600160a01b9091046001600160601b03169282019290925282916109935750604080518082019091526008546001600160a01b0381168252600160a01b90046001600160601b031660208201525b6020810151600090612710906109b2906001600160601b031687612a61565b6109bc91906129fc565b915196919550909350505050565b6000546001600160a01b031633146109f45760405162461bcd60e51b815260040161021290612961565b600054600160a01b900460ff16610a445760405162461bcd60e51b815260206004820152601460248201527314185d5cd8589b194e881b9bdd081c185d5cd95960621b6044820152606401610212565b610a4c611932565b565b6108d8838383604051806020016040528060008152506110f9565b6000818152600460205260408120546001600160a01b03168061069b5760405162461bcd60e51b815260206004820152602960248201527f4552433732313a206f776e657220717565727920666f72206e6f6e657869737460448201526832b73a103a37b5b2b760b91b6064820152608401610212565b6000546001600160a01b03163314610b0a5760405162461bcd60e51b815260040161021290612961565b600b80546001810190915580610b1f81612a80565b915050610b308187878787876119cf565b505050505050565b60006001600160a01b038216610ba35760405162461bcd60e51b815260206004820152602a60248201527f4552433732313a2062616c616e636520717565727920666f7220746865207a65604482015269726f206164647265737360b01b6064820152608401610212565b506001600160a01b031660009081526005602052604090205490565b6000546001600160a01b03163314610be95760405162461bcd60e51b815260040161021290612961565b610a4c6000611a6e565b6000546001600160a01b03163314610c1d5760405162461bcd60e51b815260040161021290612961565b600054600160a01b900460ff1615610c6a5760405162461bcd60e51b815260206004820152601060248201526f14185d5cd8589b194e881c185d5cd95960821b6044820152606401610212565b610a4c611abe565b6000546001600160a01b03163314610c9c5760405162461bcd60e51b815260040161021290612961565b610a4c6000600855565b6000546001600160a01b03163314610cd05760405162461bcd60e51b815260040161021290612961565b610cda8282611b46565b5050565b6060600380546106b090612996565b610cda338383611c43565b6000546001600160a01b03163314610d225760405162461bcd60e51b815260040161021290612961565b6000818152600a60205260409020805460079091015414610d7e5760405162461bcd60e51b81526020600482015260166024820152751513d2d15394d7d393d517d11254d51492509555115160521b6044820152606401610212565b6000818152600a6020526040902060020154610d9a8484612a99565b1015610de85760405162461bcd60e51b815260206004820152601960248201527f53484f52545f444953545249425554494f4e5f504552494f44000000000000006044820152606401610212565b6000818152600a6020526040902060010154610e049042612ab0565b831015610e425760405162461bcd60e51b815260206004820152600c60248201526b53484f52545f4e4f5449434560a01b6044820152606401610212565b6000818152600a6020526040902060038101849055600401829055610e673482611d11565b60408051348152602081018590529081018390527f16f31bcd5428bc6c57be22e8159bf20d4d64b67ec009cfd5a5b3169325de17a69060600160405180910390a1505050565b6000610eb8826108dd565b6000818152600a60205260409020600301549091504210801590610eec57506000818152600a602052604090206004015442105b610f385760405162461bcd60e51b815260206004820152601b60248201527f494e56414c49445f444953545249425554494f4e5f504552494f4400000000006044820152606401610212565b6000828152600460205260409020546001600160a01b0316610f905760405162461bcd60e51b81526020600482015260116024820152703737b732bc34b9ba32b73a103a37b5b2b760791b6044820152606401610212565b6000818152600a602052604081206006810154600590910154610fb39190612ab0565b6000838152600a6020818152604080842088855280840183529084205487855292909152549293509091610fe790846129fc565b610ff19190612a99565b9050806000036110345760405162461bcd60e51b815260206004820152600e60248201526d1b9bc8191d59481c185e5b595b9d60921b6044820152606401610212565b6000838152600a6020818152604080842088855290920190528120805483929061105f908490612ab0565b90915550506000838152600a602052604081206006018054839290611085908490612ab0565b9091555061109590508184611d3b565b6110a76110a185610a69565b82611d5c565b6110b084610a69565b6001600160a01b0316847fb398ec266cae176bd0a8d43b35200da0bb13c5620ad5e1663abdc3967a4ee50f836040516110eb91815260200190565b60405180910390a350505050565b6111033383611694565b61111f5760405162461bcd60e51b815260040161021290612a10565b61068a84848484611e75565b6000546001600160a01b031633146111555760405162461bcd60e51b815260040161021290612961565b816111995760405162461bcd60e51b815260206004820152601460248201527316915493d7d49150d15255915494d7d0d3d5539560621b6044820152606401610212565b6000818152600a6020526040902080546007909101546111ba908490612ab0565b11156111fd5760405162461bcd60e51b815260206004820152601260248201527113505617d513d2d15394d7d4915050d2115160721b6044820152606401610212565b600061120d6305f5e10083612a61565b905060005b83811015611290576000838152600a602052604090206007018054600101905561127e85858381811061124757611247612ac8565b905060200201602081019061125c9190612727565b6000858152600a6020526040902060070154611279908590612ab0565b611ea8565b8061128881612a80565b915050611212565b5050505050565b6000818152600460205260409020546060906001600160a01b03166112f25760405162461bcd60e51b81526020600482015260116024820152703737b732bc34b9ba32b73a103a37b5b2b760791b6044820152606401610212565b60006112fd836108dd565b9050600061130f6305f5e10085612ade565b6000838152600a602052604081206008018054929350909161133090612996565b80601f016020809104026020016040519081016040528092919081815260200182805461135c90612996565b80156113a95780601f1061137e576101008083540402835291602001916113a9565b820191906000526020600020905b81548152906001019060200180831161138c57829003601f168201915b5050505050905060008151116113ce57604051806020016040528060008152506113f9565b806113d883611ec2565b6040516020016113e9929190612af2565b6040516020818303038152906040525b95945050505050565b6000546001600160a01b0316331461142c5760405162461bcd60e51b815260040161021290612961565b6001600160a01b0381166114915760405162461bcd60e51b815260206004820152602660248201527f4f776e61626c653a206e6577206f776e657220697320746865207a65726f206160448201526564647265737360d01b6064820152608401610212565b61149a81611a6e565b50565b600a6020528060005260406000206000915090508060000154908060010154908060020154908060030154908060040154908060050154908060060154908060070154908060080180546114f090612996565b80601f016020809104026020016040519081016040528092919081815260200182805461151c90612996565b80156115695780601f1061153e57610100808354040283529160200191611569565b820191906000526020600020905b81548152906001019060200180831161154c57829003601f168201915b50505050509080600901805461157e90612996565b80601f01602080910402602001604051908101604052809291908181526020018280546115aa90612996565b80156115f75780601f106115cc576101008083540402835291602001916115f7565b820191906000526020600020905b8154815290600101906020018083116115da57829003601f168201915b505050505090508a565b60006001600160e01b0319821663152a902d60e11b148061069b575061069b82611fc3565b600081815260066020526040902080546001600160a01b0319166001600160a01b038416908117909155819061165b82610a69565b6001600160a01b03167f8c5be1e5ebec7d5bd14f71427d1e84f3dd0314c0f7b2291e5b200ac8c7c3b92560405160405180910390a45050565b6000818152600460205260408120546001600160a01b031661170d5760405162461bcd60e51b815260206004820152602c60248201527f4552433732313a206f70657261746f7220717565727920666f72206e6f6e657860448201526b34b9ba32b73a103a37b5b2b760a11b6064820152608401610212565b600061171883610a69565b9050806001600160a01b0316846001600160a01b0316148061175f57506001600160a01b0380821660009081526007602090815260408083209388168352929052205460ff165b806117835750836001600160a01b031661177884610733565b6001600160a01b0316145b949350505050565b826001600160a01b031661179e82610a69565b6001600160a01b0316146118025760405162461bcd60e51b815260206004820152602560248201527f4552433732313a207472616e736665722066726f6d20696e636f72726563742060448201526437bbb732b960d91b6064820152608401610212565b6001600160a01b0382166118645760405162461bcd60e51b8152602060048201526024808201527f4552433732313a207472616e7366657220746f20746865207a65726f206164646044820152637265737360e01b6064820152608401610212565b61186f838383612013565b61187a600082611626565b6001600160a01b03831660009081526005602052604081208054600192906118a3908490612a99565b90915550506001600160a01b03821660009081526005602052604081208054600192906118d1908490612ab0565b909155505060008181526004602052604080822080546001600160a01b0319166001600160a01b0386811691821790925591518493918716917fddf252ad1be2c89b69c2b068fc378daa952ba7f163c4a11628f55a4df523b3ef91a4505050565b600054600160a01b900460ff166119825760405162461bcd60e51b815260206004820152601460248201527314185d5cd8589b194e881b9bdd081c185d5cd95960621b6044820152606401610212565b6000805460ff60a01b191690557f5db9ee0a495bf2e6ff9c91a7834c1ba4fdd244a5e8aa4e537bd38aeae4b073aa335b6040516001600160a01b03909116815260200160405180910390a1565b6000868152600a6020908152604090912086815583516119f792600890920191850190612397565b506000868152600a6020908152604090912060018101869055600281018590558251611a2b92600990920191840190612397565b50857fdb1170671cc7fbd396e37ef7b995f6448be6c3784b6aec8c30f27020c9d326c58683604051611a5e929190612b31565b60405180910390a2505050505050565b600080546001600160a01b038381166001600160a01b0319831681178455604051919092169283917f8be0079c531659141344cd1fd0a4f28419497f9722a3daafe3b4186f6b6457e09190a35050565b600054600160a01b900460ff1615611b0b5760405162461bcd60e51b815260206004820152601060248201526f14185d5cd8589b194e881c185d5cd95960821b6044820152606401610212565b6000805460ff60a01b1916600160a01b1790557f62e78cea01bee320cd4e420270b5ea74000d11b0c9f74754ebdbfc544b05a2586119b23390565b6127106001600160601b0382161115611bb45760405162461bcd60e51b815260206004820152602a60248201527f455243323938313a20726f79616c7479206665652077696c6c206578636565646044820152692073616c65507269636560b01b6064820152608401610212565b6001600160a01b038216611c0a5760405162461bcd60e51b815260206004820152601960248201527f455243323938313a20696e76616c6964207265636569766572000000000000006044820152606401610212565b604080518082019091526001600160a01b039092168083526001600160601b039091166020909201829052600160a01b90910217600855565b816001600160a01b0316836001600160a01b031603611ca45760405162461bcd60e51b815260206004820152601960248201527f4552433732313a20617070726f766520746f2063616c6c6572000000000000006044820152606401610212565b6001600160a01b03838116600081815260076020908152604080832094871680845294825291829020805460ff191686151590811790915591519182527f17307eab39ab6107e8899845ad3d59bd9653f200f220920489ca2b5937696c31910160405180910390a3505050565b6000818152600a602052604081206005018054849290611d32908490612ab0565b90915550505050565b6000818152600a602052604081206005018054849290611d32908490612a99565b80471015611dac5760405162461bcd60e51b815260206004820152601d60248201527f416464726573733a20696e73756666696369656e742062616c616e63650000006044820152606401610212565b6000826001600160a01b03168260405160006040518083038185875af1925050503d8060008114611df9576040519150601f19603f3d011682016040523d82523d6000602084013e611dfe565b606091505b50509050806108d85760405162461bcd60e51b815260206004820152603a60248201527f416464726573733a20756e61626c6520746f2073656e642076616c75652c207260448201527f6563697069656e74206d617920686176652072657665727465640000000000006064820152608401610212565b611e8084848461178b565b611e8c84848484612091565b61068a5760405162461bcd60e51b815260040161021290612b4a565b610cda828260405180602001604052806000815250612192565b606081600003611ee95750506040805180820190915260018152600360fc1b602082015290565b8160005b8115611f135780611efd81612a80565b9150611f0c9050600a836129fc565b9150611eed565b60008167ffffffffffffffff811115611f2e57611f2e6125fa565b6040519080825280601f01601f191660200182016040528015611f58576020820181803683370190505b5090505b841561178357611f6d600183612a99565b9150611f7a600a86612ade565b611f85906030612ab0565b60f81b818381518110611f9a57611f9a612ac8565b60200101906001600160f81b031916908160001a905350611fbc600a866129fc565b9450611f5c565b60006001600160e01b031982166380ac58cd60e01b1480611ff457506001600160e01b03198216635b5e139f60e01b145b8061069b57506301ffc9a760e01b6001600160e01b031983161461069b565b600061201e826108dd565b6000818152600a6020526040902060030154909150421080159061205257506000818152600a602052604090206004015442105b1561068a5760405162461bcd60e51b815260206004820152600f60248201526e1514905394d1915497d4105554d151608a1b6044820152606401610212565b60006001600160a01b0384163b1561218757604051630a85bd0160e11b81526001600160a01b0385169063150b7a02906120d5903390899088908890600401612b9c565b6020604051808303816000875af1925050508015612110575060408051601f3d908101601f1916820190925261210d91810190612bd9565b60015b61216d573d80801561213e576040519150601f19603f3d011682016040523d82523d6000602084013e612143565b606091505b5080516000036121655760405162461bcd60e51b815260040161021290612b4a565b805181602001fd5b6001600160e01b031916630a85bd0160e11b149050611783565b506001949350505050565b61219c83836121c5565b6121a96000848484612091565b6108d85760405162461bcd60e51b815260040161021290612b4a565b6001600160a01b03821661221b5760405162461bcd60e51b815260206004820181905260248201527f4552433732313a206d696e7420746f20746865207a65726f20616464726573736044820152606401610212565b6000818152600460205260409020546001600160a01b0316156122805760405162461bcd60e51b815260206004820152601c60248201527f4552433732313a20746f6b656e20616c7265616479206d696e746564000000006044820152606401610212565b61228c60008383612013565b6001600160a01b03821660009081526005602052604081208054600192906122b5908490612ab0565b909155505060008181526004602052604080822080546001600160a01b0319166001600160a01b03861690811790915590518392907fddf252ad1be2c89b69c2b068fc378daa952ba7f163c4a11628f55a4df523b3ef908290a45050565b82805461231f90612996565b90600052602060002090601f0160209004810192826123415760008555612387565b82601f1061235a5782800160ff19823516178555612387565b82800160010185558215612387579182015b8281111561238757823582559160200191906001019061236c565b5061239392915061240b565b5090565b8280546123a390612996565b90600052602060002090601f0160209004810192826123c55760008555612387565b82601f106123de57805160ff1916838001178555612387565b82800160010185558215612387579182015b828111156123875782518255916020019190600101906123f0565b5b80821115612393576000815560010161240c565b60008060006040848603121561243557600080fd5b833567ffffffffffffffff8082111561244d57600080fd5b818601915086601f83011261246157600080fd5b81358181111561247057600080fd5b87602082850101111561248257600080fd5b6020928301989097509590910135949350505050565b6001600160e01b03198116811461149a57600080fd5b6000602082840312156124c057600080fd5b81356124cb81612498565b9392505050565b60005b838110156124ed5781810151838201526020016124d5565b8381111561068a5750506000910152565b600081518084526125168160208601602086016124d2565b601f01601f19169290920160200192915050565b6020815260006124cb60208301846124fe565b60006020828403121561254f57600080fd5b5035919050565b80356001600160a01b038116811461256d57600080fd5b919050565b6000806040838503121561258557600080fd5b61258e83612556565b946020939093013593505050565b6000806000606084860312156125b157600080fd5b6125ba84612556565b92506125c860208501612556565b9150604084013590509250925092565b600080604083850312156125eb57600080fd5b50508035926020909101359150565b634e487b7160e01b600052604160045260246000fd5b600067ffffffffffffffff8084111561262b5761262b6125fa565b604051601f8501601f19908116603f01168101908282118183101715612653576126536125fa565b8160405280935085815286868601111561266c57600080fd5b858560208301376000602087830101525050509392505050565b600082601f83011261269757600080fd5b6124cb83833560208501612610565b600080600080600060a086880312156126be57600080fd5b853594506020860135935060408601359250606086013567ffffffffffffffff808211156126eb57600080fd5b6126f789838a01612686565b9350608088013591508082111561270d57600080fd5b5061271a88828901612686565b9150509295509295909350565b60006020828403121561273957600080fd5b6124cb82612556565b6000806040838503121561275557600080fd5b61275e83612556565b915060208301356001600160601b038116811461277a57600080fd5b809150509250929050565b6000806040838503121561279857600080fd5b6127a183612556565b91506020830135801515811461277a57600080fd5b6000806000606084860312156127cb57600080fd5b505081359360208301359350604090920135919050565b600080600080608085870312156127f857600080fd5b61280185612556565b935061280f60208601612556565b925060408501359150606085013567ffffffffffffffff81111561283257600080fd5b8501601f8101871361284357600080fd5b61285287823560208401612610565b91505092959194509250565b60008060006040848603121561287357600080fd5b833567ffffffffffffffff8082111561288b57600080fd5b818601915086601f83011261289f57600080fd5b8135818111156128ae57600080fd5b8760208260051b850101111561248257600080fd5b600080604083850312156128d657600080fd5b6128df83612556565b91506128ed60208401612556565b90509250929050565b60006101408c83528b60208401528a60408401528960608401528860808401528760a08401528660c08401528560e08401528061010084015261293b818401866124fe565b905082810361012084015261295081856124fe565b9d9c50505050505050505050505050565b6020808252818101527f4f776e61626c653a2063616c6c6572206973206e6f7420746865206f776e6572604082015260600190565b600181811c908216806129aa57607f821691505b6020821081036129ca57634e487b7160e01b600052602260045260246000fd5b50919050565b634e487b7160e01b600052601260045260246000fd5b634e487b7160e01b600052601160045260246000fd5b600082612a0b57612a0b6129d0565b500490565b60208082526031908201527f4552433732313a207472616e736665722063616c6c6572206973206e6f74206f6040820152701ddb995c881b9bdc88185c1c1c9bdd9959607a1b606082015260800190565b6000816000190483118215151615612a7b57612a7b6129e6565b500290565b600060018201612a9257612a926129e6565b5060010190565b600082821015612aab57612aab6129e6565b500390565b60008219821115612ac357612ac36129e6565b500190565b634e487b7160e01b600052603260045260246000fd5b600082612aed57612aed6129d0565b500690565b60008351612b048184602088016124d2565b835190830190612b188183602088016124d2565b64173539b7b760d91b9101908152600501949350505050565b82815260406020820152600061178360408301846124fe565b60208082526032908201527f4552433732313a207472616e7366657220746f206e6f6e20455243373231526560408201527131b2b4bb32b91034b6b83632b6b2b73a32b960711b606082015260800190565b6001600160a01b0385811682528416602082015260408101839052608060608201819052600090612bcf908301846124fe565b9695505050505050565b600060208284031215612beb57600080fd5b81516124cb8161249856fea26469706673582212207de03f5a0e81b316f84db4d738dafde19a47f8b3293056c94a8d57fdd441b5e764736f6c634300080d0033",
  "devdoc": {
    "kind": "dev",
    "methods": {
      "approve(address,uint256)": {
        "details": "See {IERC721-approve}."
      },
      "balanceOf(address)": {
        "details": "See {IERC721-balanceOf}."
      },
      "getApproved(uint256)": {
        "details": "See {IERC721-getApproved}."
      },
      "isApprovedForAll(address,address)": {
        "details": "See {IERC721-isApprovedForAll}."
      },
      "name()": {
        "details": "See {IERC721Metadata-name}."
      },
      "owner()": {
        "details": "Returns the address of the current owner."
      },
      "ownerOf(uint256)": {
        "details": "See {IERC721-ownerOf}."
      },
      "paused()": {
        "details": "Returns true if the contract is paused, and false otherwise."
      },
      "renounceOwnership()": {
        "details": "Leaves the contract without owner. It will not be possible to call `onlyOwner` functions anymore. Can only be called by the current owner. NOTE: Renouncing ownership will leave the contract without an owner, thereby removing any functionality that is only available to the owner."
      },
      "royaltyInfo(uint256,uint256)": {
        "details": "Returns how much royalty is owed and to whom, based on a sale price that may be denominated in any unit of exchange. The royalty amount is denominated and should be paid in that same unit of exchange."
      },
      "safeTransferFrom(address,address,uint256)": {
        "details": "See {IERC721-safeTransferFrom}."
      },
      "safeTransferFrom(address,address,uint256,bytes)": {
        "details": "See {IERC721-safeTransferFrom}."
      },
      "setApprovalForAll(address,bool)": {
        "details": "See {IERC721-setApprovalForAll}."
      },
      "symbol()": {
        "details": "See {IERC721Metadata-symbol}."
      },
      "tokenURI(uint256)": {
        "details": "See {IERC721Metadata-tokenURI}."
      },
      "transferFrom(address,address,uint256)": {
        "details": "See {IERC721-transferFrom}."
      },
      "transferOwnership(address)": {
        "details": "Transfers ownership of the contract to a new account (`newOwner`). Can only be called by the current owner."
      }
    },
    "version": 1
  },
  "userdoc": {
    "kind": "user",
    "methods": {},
    "version": 1
  },
  "storageLayout": {
    "storage": [
      {
        "astId": 7,
        "contract": "contracts/TheRealDream.sol:TheRealDream",
        "label": "_owner",
        "offset": 0,
        "slot": "0",
        "type": "t_address"
      },
      {
        "astId": 141,
        "contract": "contracts/TheRealDream.sol:TheRealDream",
        "label": "_paused",
        "offset": 20,
        "slot": "0",
        "type": "t_bool"
      },
      {
        "astId": 226,
        "contract": "contracts/TheRealDream.sol:TheRealDream",
        "label": "_status",
        "offset": 0,
        "slot": "1",
        "type": "t_uint256"
      },
      {
        "astId": 281,
        "contract": "contracts/TheRealDream.sol:TheRealDream",
        "label": "_name",
        "offset": 0,
        "slot": "2",
        "type": "t_string_storage"
      },
      {
        "astId": 283,
        "contract": "contracts/TheRealDream.sol:TheRealDream",
        "label": "_symbol",
        "offset": 0,
        "slot": "3",
        "type": "t_string_storage"
      },
      {
        "astId": 287,
        "contract": "contracts/TheRealDream.sol:TheRealDream",
        "label": "_owners",
        "offset": 0,
        "slot": "4",
        "type": "t_mapping(t_uint256,t_address)"
      },
      {
        "astId": 291,
        "contract": "contracts/TheRealDream.sol:TheRealDream",
        "label": "_balances",
        "offset": 0,
        "slot": "5",
        "type": "t_mapping(t_address,t_uint256)"
      },
      {
        "astId": 295,
        "contract": "contracts/TheRealDream.sol:TheRealDream",
        "label": "_tokenApprovals",
        "offset": 0,
        "slot": "6",
        "type": "t_mapping(t_uint256,t_address)"
      },
      {
        "astId": 301,
        "contract": "contracts/TheRealDream.sol:TheRealDream",
        "label": "_operatorApprovals",
        "offset": 0,
        "slot": "7",
        "type": "t_mapping(t_address,t_mapping(t_address,t_bool))"
      },
      {
        "astId": 1299,
        "contract": "contracts/TheRealDream.sol:TheRealDream",
        "label": "_defaultRoyaltyInfo",
        "offset": 0,
        "slot": "8",
        "type": "t_struct(RoyaltyInfo)1296_storage"
      },
      {
        "astId": 1304,
        "contract": "contracts/TheRealDream.sol:TheRealDream",
        "label": "_tokenRoyaltyInfo",
        "offset": 0,
        "slot": "9",
        "type": "t_mapping(t_uint256,t_struct(RoyaltyInfo)1296_storage)"
      },
      {
        "astId": 2749,
        "contract": "contracts/TheRealDream.sol:TheRealDream",
        "label": "rewards",
        "offset": 0,
        "slot": "10",
        "type": "t_mapping(t_uint256,t_struct(RewardData)2744_storage)"
      },
      {
        "astId": 2751,
        "contract": "contracts/TheRealDream.sol:TheRealDream",
        "label": "rewardsIndex",
        "offset": 0,
        "slot": "11",
        "type": "t_uint256"
      }
    ],
    "types": {
      "t_address": {
        "encoding": "inplace",
        "label": "address",
        "numberOfBytes": "20"
      },
      "t_bool": {
        "encoding": "inplace",
        "label": "bool",
        "numberOfBytes": "1"
      },
      "t_mapping(t_address,t_bool)": {
        "encoding": "mapping",
        "key": "t_address",
        "label": "mapping(address => bool)",
        "numberOfBytes": "32",
        "value": "t_bool"
      },
      "t_mapping(t_address,t_mapping(t_address,t_bool))": {
        "encoding": "mapping",
        "key": "t_address",
        "label": "mapping(address => mapping(address => bool))",
        "numberOfBytes": "32",
        "value": "t_mapping(t_address,t_bool)"
      },
      "t_mapping(t_address,t_uint256)": {
        "encoding": "mapping",
        "key": "t_address",
        "label": "mapping(address => uint256)",
        "numberOfBytes": "32",
        "value": "t_uint256"
      },
      "t_mapping(t_uint256,t_address)": {
        "encoding": "mapping",
        "key": "t_uint256",
        "label": "mapping(uint256 => address)",
        "numberOfBytes": "32",
        "value": "t_address"
      },
      "t_mapping(t_uint256,t_struct(RewardData)2744_storage)": {
        "encoding": "mapping",
        "key": "t_uint256",
        "label": "mapping(uint256 => struct TheRealDreamStorage.RewardData)",
        "numberOfBytes": "32",
        "value": "t_struct(RewardData)2744_storage"
      },
      "t_mapping(t_uint256,t_struct(RoyaltyInfo)1296_storage)": {
        "encoding": "mapping",
        "key": "t_uint256",
        "label": "mapping(uint256 => struct ERC2981.RoyaltyInfo)",
        "numberOfBytes": "32",
        "value": "t_struct(RoyaltyInfo)1296_storage"
      },
      "t_mapping(t_uint256,t_uint256)": {
        "encoding": "mapping",
        "key": "t_uint256",
        "label": "mapping(uint256 => uint256)",
        "numberOfBytes": "32",
        "value": "t_uint256"
      },
      "t_string_storage": {
        "encoding": "bytes",
        "label": "string",
        "numberOfBytes": "32"
      },
      "t_struct(RewardData)2744_storage": {
        "encoding": "inplace",
        "label": "struct TheRealDreamStorage.RewardData",
        "members": [
          {
            "astId": 2721,
            "contract": "contracts/TheRealDream.sol:TheRealDream",
            "label": "maximumTokens",
            "offset": 0,
            "slot": "0",
            "type": "t_uint256"
          },
          {
            "astId": 2723,
            "contract": "contracts/TheRealDream.sol:TheRealDream",
            "label": "cooldownPeriod",
            "offset": 0,
            "slot": "1",
            "type": "t_uint256"
          },
          {
            "astId": 2725,
            "contract": "contracts/TheRealDream.sol:TheRealDream",
            "label": "minimumDistributionPeriod",
            "offset": 0,
            "slot": "2",
            "type": "t_uint256"
          },
          {
            "astId": 2727,
            "contract": "contracts/TheRealDream.sol:TheRealDream",
            "label": "distributionStartTime",
            "offset": 0,
            "slot": "3",
            "type": "t_uint256"
          },
          {
            "astId": 2729,
            "contract": "contracts/TheRealDream.sol:TheRealDream",
            "label": "distributionEndTime",
            "offset": 0,
            "slot": "4",
            "type": "t_uint256"
          },
          {
            "astId": 2731,
            "contract": "contracts/TheRealDream.sol:TheRealDream",
            "label": "totalBalance",
            "offset": 0,
            "slot": "5",
            "type": "t_uint256"
          },
          {
            "astId": 2733,
            "contract": "contracts/TheRealDream.sol:TheRealDream",
            "label": "totalReleased",
            "offset": 0,
            "slot": "6",
            "type": "t_uint256"
          },
          {
            "astId": 2735,
            "contract": "contracts/TheRealDream.sol:TheRealDream",
            "label": "totalSupply",
            "offset": 0,
            "slot": "7",
            "type": "t_uint256"
          },
          {
            "astId": 2737,
            "contract": "contracts/TheRealDream.sol:TheRealDream",
            "label": "baseURI",
            "offset": 0,
            "slot": "8",
            "type": "t_string_storage"
          },
          {
            "astId": 2739,
            "contract": "contracts/TheRealDream.sol:TheRealDream",
            "label": "assetURI",
            "offset": 0,
            "slot": "9",
            "type": "t_string_storage"
          },
          {
            "astId": 2743,
            "contract": "contracts/TheRealDream.sol:TheRealDream",
            "label": "released",
            "offset": 0,
            "slot": "10",
            "type": "t_mapping(t_uint256,t_uint256)"
          }
        ],
        "numberOfBytes": "352"
      },
      "t_struct(RoyaltyInfo)1296_storage": {
        "encoding": "inplace",
        "label": "struct ERC2981.RoyaltyInfo",
        "members": [
          {
            "astId": 1293,
            "contract": "contracts/TheRealDream.sol:TheRealDream",
            "label": "receiver",
            "offset": 0,
            "slot": "0",
            "type": "t_address"
          },
          {
            "astId": 1295,
            "contract": "contracts/TheRealDream.sol:TheRealDream",
            "label": "royaltyFraction",
            "offset": 20,
            "slot": "0",
            "type": "t_uint96"
          }
        ],
        "numberOfBytes": "32"
      },
      "t_uint256": {
        "encoding": "inplace",
        "label": "uint256",
        "numberOfBytes": "32"
      },
      "t_uint96": {
        "encoding": "inplace",
        "label": "uint96",
        "numberOfBytes": "12"
      }
    }
  }
}